{
  "abi": [
    {
      "inputs": [],
      "name": "getFrontpageArticles",
      "outputs": [
        {
          "components": [
            {
              "internalType": "address",
              "name": "author",
              "type": "address"
            },
            {
              "internalType": "string",
              "name": "text",
              "type": "string"
            },
            {
              "internalType": "uint256",
              "name": "upvotes",
              "type": "uint256"
            }
          ],
          "internalType": "struct Article[]",
          "name": "_frontpageArticles",
          "type": "tuple[]"
        }
      ],
      "stateMutability": "view",
      "type": "function"
    },
    {
      "inputs": [],
      "name": "getSubmittedArticles",
      "outputs": [
        {
          "components": [
            {
              "internalType": "address",
              "name": "author",
              "type": "address"
            },
            {
              "internalType": "string",
              "name": "text",
              "type": "string"
            },
            {
              "internalType": "uint256",
              "name": "upvotes",
              "type": "uint256"
            }
          ],
          "internalType": "struct Article[]",
          "name": "_submittedArticles",
          "type": "tuple[]"
        }
      ],
      "stateMutability": "view",
      "type": "function"
    },
    {
      "inputs": [
        {
          "internalType": "uint256",
          "name": "articleIndex",
          "type": "uint256"
        }
      ],
      "name": "getUpvotes",
      "outputs": [
        {
          "internalType": "uint256",
          "name": "_upvotes",
          "type": "uint256"
        }
      ],
      "stateMutability": "view",
      "type": "function"
    },
    {
      "inputs": [
        {
          "internalType": "string",
          "name": "_text",
          "type": "string"
        }
      ],
      "name": "initArticle",
      "outputs": [],
      "stateMutability": "nonpayable",
      "type": "function"
    },
    {
      "inputs": [],
      "name": "pinArticleToFrontPage",
      "outputs": [],
      "stateMutability": "nonpayable",
      "type": "function"
    },
    {
      "inputs": [
        {
          "internalType": "uint256",
          "name": "articleIndex",
          "type": "uint256"
        }
      ],
      "name": "upvoteArticle",
      "outputs": [],
      "stateMutability": "nonpayable",
      "type": "function"
    }
  ],
  "bytecode": "608060405234801561001057600080fd5b50610a74806100206000396000f3fe608060405234801561001057600080fd5b50600436106100625760003560e01c80631ba9b1a2146100675780635a8538a0146100855780638d6fc89c1461008d57806398f42702146100975780639ee3897c146100b8578063a217de60146100cb575b600080fd5b61006f6100de565b60405161007c91906107fe565b60405180910390f35b61006f6101ef565b6100956102f7565b005b6100aa6100a53660046108c4565b6103a5565b60405190815260200161007c565b6100956100c63660046108f3565b61042a565b6100956100d93660046108c4565b610550565b60606001805480602002602001604051908101604052809291908181526020016000905b828210156101e657600084815260209081902060408051606081019091526003850290910180546001600160a01b03168252600181018054929391929184019161014b906109a4565b80601f0160208091040260200160405190810160405280929190818152602001828054610177906109a4565b80156101c45780601f10610199576101008083540402835291602001916101c4565b820191906000526020600020905b8154815290600101906020018083116101a757829003601f168201915b5050505050815260200160028201548152505081526020019060010190610102565b50505050905090565b60606000805480602002602001604051908101604052809291908181526020016000905b828210156101e657600084815260209081902060408051606081019091526003850290910180546001600160a01b03168252600181018054929391929184019161025c906109a4565b80601f0160208091040260200160405190810160405280929190818152602001828054610288906109a4565b80156102d55780601f106102aa576101008083540402835291602001916102d5565b820191906000526020600020905b8154815290600101906020018083116102b857829003601f168201915b5050505050815260200160028201548152505081526020019060010190610213565b60006103016105dd565b60008054600181018255908052815160039091027f290decd9548b62a8d60345a988386fc84ba6bc95484008f6362f93160ef3e563810180546001600160a01b039093166001600160a01b031990931692909217825560208084015180519495508594610395937f290decd9548b62a8d60345a988386fc84ba6bc95484008f6362f93160ef3e56401929190910190610765565b5060408201518160020155505050565b60015460009082106103fe5760405162461bcd60e51b815260206004820152601c60248201527f41727469636c6520696e64657820646f6573206e6f742065786973740000000060448201526064015b60405180910390fd5b60018281548110610411576104116109df565b9060005260206000209060030201600201549050919050565b6040805160608101825233808252602080830185815260008486018190529283526002825293822080546001808201835591845292829020845160039094020180546001600160a01b0319166001600160a01b0390941693909317835593518051939485946104a0939185019290910190610765565b506040919091015160029091015560018054808201825560009190915281517fb10e2d527612073b26eecdfd717e6a320cf44b4afac2b0732d9fcbe2b7fa0cf6600390920291820180546001600160a01b0319166001600160a01b039092169190911781556020808401518051859461053f937fb10e2d527612073b26eecdfd717e6a320cf44b4afac2b0732d9fcbe2b7fa0cf7909101920190610765565b506040820151816002015550505050565b60015481106105a15760405162461bcd60e51b815260206004820152601c60248201527f41727469636c6520696e64657820646f6573206e6f742065786973740000000060448201526064016103f5565b60018082815481106105b5576105b56109df565b906000526020600020906003020160020160008282546105d59190610a0b565b909155505050565b61060a604051806060016040528060006001600160a01b0316815260200160608152602001600081525090565b600060015b60015481101561067f576001828154811061062c5761062c6109df565b90600052602060002090600302016002015460018281548110610651576106516109df565b906000526020600020906003020160020154111561066d578091505b8061067781610a23565b91505061060f565b5060018181548110610693576106936109df565b6000918252602091829020604080516060810190915260039092020180546001600160a01b0316825260018101805492939192918401916106d3906109a4565b80601f01602080910402602001604051908101604052809291908181526020018280546106ff906109a4565b801561074c5780601f106107215761010080835404028352916020019161074c565b820191906000526020600020905b81548152906001019060200180831161072f57829003601f168201915b5050505050815260200160028201548152505091505090565b828054610771906109a4565b90600052602060002090601f01602090048101928261079357600085556107d9565b82601f106107ac57805160ff19168380011785556107d9565b828001600101855582156107d9579182015b828111156107d95782518255916020019190600101906107be565b506107e59291506107e9565b5090565b5b808211156107e557600081556001016107ea565b60006020808301818452808551808352604092508286019150828160051b8701018488016000805b848110156108b557898403603f19018652825180516001600160a01b031685528881015160608a870181905281519087018190528491905b8083101561087c578183018c015188840160800152918b019161085e565b8083111561088d57856080828a0101525b928a0151878b0152505095880195601f01601f19169093016080019291870191600101610826565b50919998505050505050505050565b6000602082840312156108d657600080fd5b5035919050565b634e487b7160e01b600052604160045260246000fd5b60006020828403121561090557600080fd5b813567ffffffffffffffff8082111561091d57600080fd5b818401915084601f83011261093157600080fd5b813581811115610943576109436108dd565b604051601f8201601f19908116603f0116810190838211818310171561096b5761096b6108dd565b8160405282815287602084870101111561098457600080fd5b826020860160208301376000928101602001929092525095945050505050565b600181811c908216806109b857607f821691505b602082108114156109d957634e487b7160e01b600052602260045260246000fd5b50919050565b634e487b7160e01b600052603260045260246000fd5b634e487b7160e01b600052601160045260246000fd5b60008219821115610a1e57610a1e6109f5565b500190565b6000600019821415610a3757610a376109f5565b506001019056fea2646970667358221220299c28f5fc61d50143cd9417a3bd597cd983add9644395c3caa78e93a86f2d0b64736f6c634300080a0033",
  "bytecodeSha1": "2673b8bb9cc76f47548c91e62f00dfda6abb2538",
  "compiler": {
    "evm_version": "istanbul",
    "optimizer": {
      "enabled": true,
      "runs": 200
    },
    "version": "0.8.10+commit.fc410830"
  },
  "contractName": "Editorial",
  "language": "Solidity",
  "natspec": {
    "kind": "dev",
    "methods": {},
    "version": 1
  },
  "opcodes": "PUSH1 0x80 PUSH1 0x40 MSTORE CALLVALUE DUP1 ISZERO PUSH2 0x10 JUMPI PUSH1 0x0 DUP1 REVERT JUMPDEST POP PUSH1 0x4 CALLDATASIZE LT PUSH2 0x62 JUMPI PUSH1 0x0 CALLDATALOAD PUSH1 0xE0 SHR DUP1 PUSH4 0x1BA9B1A2 EQ PUSH2 0x67 JUMPI DUP1 PUSH4 0x5A8538A0 EQ PUSH2 0x85 JUMPI DUP1 PUSH4 0x8D6FC89C EQ PUSH2 0x8D JUMPI DUP1 PUSH4 0x98F42702 EQ PUSH2 0x97 JUMPI DUP1 PUSH4 0x9EE3897C EQ PUSH2 0xB8 JUMPI DUP1 PUSH4 0xA217DE60 EQ PUSH2 0xCB JUMPI JUMPDEST PUSH1 0x0 DUP1 REVERT JUMPDEST PUSH2 0x6F PUSH2 0xDE JUMP JUMPDEST PUSH1 0x40 MLOAD PUSH2 0x7C SWAP2 SWAP1 PUSH2 0x7FE JUMP JUMPDEST PUSH1 0x40 MLOAD DUP1 SWAP2 SUB SWAP1 RETURN JUMPDEST PUSH2 0x6F PUSH2 0x1EF JUMP JUMPDEST PUSH2 0x95 PUSH2 0x2F7 JUMP JUMPDEST STOP JUMPDEST PUSH2 0xAA PUSH2 0xA5 CALLDATASIZE PUSH1 0x4 PUSH2 0x8C4 JUMP JUMPDEST PUSH2 0x3A5 JUMP JUMPDEST PUSH1 0x40 MLOAD SWAP1 DUP2 MSTORE PUSH1 0x20 ADD PUSH2 0x7C JUMP JUMPDEST PUSH2 0x95 PUSH2 0xC6 CALLDATASIZE PUSH1 0x4 PUSH2 0x8F3 JUMP JUMPDEST PUSH2 0x42A JUMP JUMPDEST PUSH2 0x95 PUSH2 0xD9 CALLDATASIZE PUSH1 0x4 PUSH2 0x8C4 JUMP JUMPDEST PUSH2 0x550 JUMP JUMPDEST PUSH1 0x60 PUSH1 0x1 DUP1 SLOAD DUP1 PUSH1 0x20 MUL PUSH1 0x20 ADD PUSH1 0x40 MLOAD SWAP1 DUP2 ADD PUSH1 0x40 MSTORE DUP1 SWAP3 SWAP2 SWAP1 DUP2 DUP2 MSTORE PUSH1 0x20 ADD PUSH1 0x0 SWAP1 JUMPDEST DUP3 DUP3 LT ISZERO PUSH2 0x1E6 JUMPI PUSH1 0x0 DUP5 DUP2 MSTORE PUSH1 0x20 SWAP1 DUP2 SWAP1 KECCAK256 PUSH1 0x40 DUP1 MLOAD PUSH1 0x60 DUP2 ADD SWAP1 SWAP2 MSTORE PUSH1 0x3 DUP6 MUL SWAP1 SWAP2 ADD DUP1 SLOAD PUSH1 0x1 PUSH1 0x1 PUSH1 0xA0 SHL SUB AND DUP3 MSTORE PUSH1 0x1 DUP2 ADD DUP1 SLOAD SWAP3 SWAP4 SWAP2 SWAP3 SWAP2 DUP5 ADD SWAP2 PUSH2 0x14B SWAP1 PUSH2 0x9A4 JUMP JUMPDEST DUP1 PUSH1 0x1F ADD PUSH1 0x20 DUP1 SWAP2 DIV MUL PUSH1 0x20 ADD PUSH1 0x40 MLOAD SWAP1 DUP2 ADD PUSH1 0x40 MSTORE DUP1 SWAP3 SWAP2 SWAP1 DUP2 DUP2 MSTORE PUSH1 0x20 ADD DUP3 DUP1 SLOAD PUSH2 0x177 SWAP1 PUSH2 0x9A4 JUMP JUMPDEST DUP1 ISZERO PUSH2 0x1C4 JUMPI DUP1 PUSH1 0x1F LT PUSH2 0x199 JUMPI PUSH2 0x100 DUP1 DUP4 SLOAD DIV MUL DUP4 MSTORE SWAP2 PUSH1 0x20 ADD SWAP2 PUSH2 0x1C4 JUMP JUMPDEST DUP3 ADD SWAP2 SWAP1 PUSH1 0x0 MSTORE PUSH1 0x20 PUSH1 0x0 KECCAK256 SWAP1 JUMPDEST DUP2 SLOAD DUP2 MSTORE SWAP1 PUSH1 0x1 ADD SWAP1 PUSH1 0x20 ADD DUP1 DUP4 GT PUSH2 0x1A7 JUMPI DUP3 SWAP1 SUB PUSH1 0x1F AND DUP3 ADD SWAP2 JUMPDEST POP POP POP POP POP DUP2 MSTORE PUSH1 0x20 ADD PUSH1 0x2 DUP3 ADD SLOAD DUP2 MSTORE POP POP DUP2 MSTORE PUSH1 0x20 ADD SWAP1 PUSH1 0x1 ADD SWAP1 PUSH2 0x102 JUMP JUMPDEST POP POP POP POP SWAP1 POP SWAP1 JUMP JUMPDEST PUSH1 0x60 PUSH1 0x0 DUP1 SLOAD DUP1 PUSH1 0x20 MUL PUSH1 0x20 ADD PUSH1 0x40 MLOAD SWAP1 DUP2 ADD PUSH1 0x40 MSTORE DUP1 SWAP3 SWAP2 SWAP1 DUP2 DUP2 MSTORE PUSH1 0x20 ADD PUSH1 0x0 SWAP1 JUMPDEST DUP3 DUP3 LT ISZERO PUSH2 0x1E6 JUMPI PUSH1 0x0 DUP5 DUP2 MSTORE PUSH1 0x20 SWAP1 DUP2 SWAP1 KECCAK256 PUSH1 0x40 DUP1 MLOAD PUSH1 0x60 DUP2 ADD SWAP1 SWAP2 MSTORE PUSH1 0x3 DUP6 MUL SWAP1 SWAP2 ADD DUP1 SLOAD PUSH1 0x1 PUSH1 0x1 PUSH1 0xA0 SHL SUB AND DUP3 MSTORE PUSH1 0x1 DUP2 ADD DUP1 SLOAD SWAP3 SWAP4 SWAP2 SWAP3 SWAP2 DUP5 ADD SWAP2 PUSH2 0x25C SWAP1 PUSH2 0x9A4 JUMP JUMPDEST DUP1 PUSH1 0x1F ADD PUSH1 0x20 DUP1 SWAP2 DIV MUL PUSH1 0x20 ADD PUSH1 0x40 MLOAD SWAP1 DUP2 ADD PUSH1 0x40 MSTORE DUP1 SWAP3 SWAP2 SWAP1 DUP2 DUP2 MSTORE PUSH1 0x20 ADD DUP3 DUP1 SLOAD PUSH2 0x288 SWAP1 PUSH2 0x9A4 JUMP JUMPDEST DUP1 ISZERO PUSH2 0x2D5 JUMPI DUP1 PUSH1 0x1F LT PUSH2 0x2AA JUMPI PUSH2 0x100 DUP1 DUP4 SLOAD DIV MUL DUP4 MSTORE SWAP2 PUSH1 0x20 ADD SWAP2 PUSH2 0x2D5 JUMP JUMPDEST DUP3 ADD SWAP2 SWAP1 PUSH1 0x0 MSTORE PUSH1 0x20 PUSH1 0x0 KECCAK256 SWAP1 JUMPDEST DUP2 SLOAD DUP2 MSTORE SWAP1 PUSH1 0x1 ADD SWAP1 PUSH1 0x20 ADD DUP1 DUP4 GT PUSH2 0x2B8 JUMPI DUP3 SWAP1 SUB PUSH1 0x1F AND DUP3 ADD SWAP2 JUMPDEST POP POP POP POP POP DUP2 MSTORE PUSH1 0x20 ADD PUSH1 0x2 DUP3 ADD SLOAD DUP2 MSTORE POP POP DUP2 MSTORE PUSH1 0x20 ADD SWAP1 PUSH1 0x1 ADD SWAP1 PUSH2 0x213 JUMP JUMPDEST PUSH1 0x0 PUSH2 0x301 PUSH2 0x5DD JUMP JUMPDEST PUSH1 0x0 DUP1 SLOAD PUSH1 0x1 DUP2 ADD DUP3 SSTORE SWAP1 DUP1 MSTORE DUP2 MLOAD PUSH1 0x3 SWAP1 SWAP2 MUL PUSH32 0x290DECD9548B62A8D60345A988386FC84BA6BC95484008F6362F93160EF3E563 DUP2 ADD DUP1 SLOAD PUSH1 0x1 PUSH1 0x1 PUSH1 0xA0 SHL SUB SWAP1 SWAP4 AND PUSH1 0x1 PUSH1 0x1 PUSH1 0xA0 SHL SUB NOT SWAP1 SWAP4 AND SWAP3 SWAP1 SWAP3 OR DUP3 SSTORE PUSH1 0x20 DUP1 DUP5 ADD MLOAD DUP1 MLOAD SWAP5 SWAP6 POP DUP6 SWAP5 PUSH2 0x395 SWAP4 PUSH32 0x290DECD9548B62A8D60345A988386FC84BA6BC95484008F6362F93160EF3E564 ADD SWAP3 SWAP2 SWAP1 SWAP2 ADD SWAP1 PUSH2 0x765 JUMP JUMPDEST POP PUSH1 0x40 DUP3 ADD MLOAD DUP2 PUSH1 0x2 ADD SSTORE POP POP POP JUMP JUMPDEST PUSH1 0x1 SLOAD PUSH1 0x0 SWAP1 DUP3 LT PUSH2 0x3FE JUMPI PUSH1 0x40 MLOAD PUSH3 0x461BCD PUSH1 0xE5 SHL DUP2 MSTORE PUSH1 0x20 PUSH1 0x4 DUP3 ADD MSTORE PUSH1 0x1C PUSH1 0x24 DUP3 ADD MSTORE PUSH32 0x41727469636C6520696E64657820646F6573206E6F7420657869737400000000 PUSH1 0x44 DUP3 ADD MSTORE PUSH1 0x64 ADD JUMPDEST PUSH1 0x40 MLOAD DUP1 SWAP2 SUB SWAP1 REVERT JUMPDEST PUSH1 0x1 DUP3 DUP2 SLOAD DUP2 LT PUSH2 0x411 JUMPI PUSH2 0x411 PUSH2 0x9DF JUMP JUMPDEST SWAP1 PUSH1 0x0 MSTORE PUSH1 0x20 PUSH1 0x0 KECCAK256 SWAP1 PUSH1 0x3 MUL ADD PUSH1 0x2 ADD SLOAD SWAP1 POP SWAP2 SWAP1 POP JUMP JUMPDEST PUSH1 0x40 DUP1 MLOAD PUSH1 0x60 DUP2 ADD DUP3 MSTORE CALLER DUP1 DUP3 MSTORE PUSH1 0x20 DUP1 DUP4 ADD DUP6 DUP2 MSTORE PUSH1 0x0 DUP5 DUP7 ADD DUP2 SWAP1 MSTORE SWAP3 DUP4 MSTORE PUSH1 0x2 DUP3 MSTORE SWAP4 DUP3 KECCAK256 DUP1 SLOAD PUSH1 0x1 DUP1 DUP3 ADD DUP4 SSTORE SWAP2 DUP5 MSTORE SWAP3 DUP3 SWAP1 KECCAK256 DUP5 MLOAD PUSH1 0x3 SWAP1 SWAP5 MUL ADD DUP1 SLOAD PUSH1 0x1 PUSH1 0x1 PUSH1 0xA0 SHL SUB NOT AND PUSH1 0x1 PUSH1 0x1 PUSH1 0xA0 SHL SUB SWAP1 SWAP5 AND SWAP4 SWAP1 SWAP4 OR DUP4 SSTORE SWAP4 MLOAD DUP1 MLOAD SWAP4 SWAP5 DUP6 SWAP5 PUSH2 0x4A0 SWAP4 SWAP2 DUP6 ADD SWAP3 SWAP1 SWAP2 ADD SWAP1 PUSH2 0x765 JUMP JUMPDEST POP PUSH1 0x40 SWAP2 SWAP1 SWAP2 ADD MLOAD PUSH1 0x2 SWAP1 SWAP2 ADD SSTORE PUSH1 0x1 DUP1 SLOAD DUP1 DUP3 ADD DUP3 SSTORE PUSH1 0x0 SWAP2 SWAP1 SWAP2 MSTORE DUP2 MLOAD PUSH32 0xB10E2D527612073B26EECDFD717E6A320CF44B4AFAC2B0732D9FCBE2B7FA0CF6 PUSH1 0x3 SWAP1 SWAP3 MUL SWAP2 DUP3 ADD DUP1 SLOAD PUSH1 0x1 PUSH1 0x1 PUSH1 0xA0 SHL SUB NOT AND PUSH1 0x1 PUSH1 0x1 PUSH1 0xA0 SHL SUB SWAP1 SWAP3 AND SWAP2 SWAP1 SWAP2 OR DUP2 SSTORE PUSH1 0x20 DUP1 DUP5 ADD MLOAD DUP1 MLOAD DUP6 SWAP5 PUSH2 0x53F SWAP4 PUSH32 0xB10E2D527612073B26EECDFD717E6A320CF44B4AFAC2B0732D9FCBE2B7FA0CF7 SWAP1 SWAP2 ADD SWAP3 ADD SWAP1 PUSH2 0x765 JUMP JUMPDEST POP PUSH1 0x40 DUP3 ADD MLOAD DUP2 PUSH1 0x2 ADD SSTORE POP POP POP POP JUMP JUMPDEST PUSH1 0x1 SLOAD DUP2 LT PUSH2 0x5A1 JUMPI PUSH1 0x40 MLOAD PUSH3 0x461BCD PUSH1 0xE5 SHL DUP2 MSTORE PUSH1 0x20 PUSH1 0x4 DUP3 ADD MSTORE PUSH1 0x1C PUSH1 0x24 DUP3 ADD MSTORE PUSH32 0x41727469636C6520696E64657820646F6573206E6F7420657869737400000000 PUSH1 0x44 DUP3 ADD MSTORE PUSH1 0x64 ADD PUSH2 0x3F5 JUMP JUMPDEST PUSH1 0x1 DUP1 DUP3 DUP2 SLOAD DUP2 LT PUSH2 0x5B5 JUMPI PUSH2 0x5B5 PUSH2 0x9DF JUMP JUMPDEST SWAP1 PUSH1 0x0 MSTORE PUSH1 0x20 PUSH1 0x0 KECCAK256 SWAP1 PUSH1 0x3 MUL ADD PUSH1 0x2 ADD PUSH1 0x0 DUP3 DUP3 SLOAD PUSH2 0x5D5 SWAP2 SWAP1 PUSH2 0xA0B JUMP JUMPDEST SWAP1 SWAP2 SSTORE POP POP POP JUMP JUMPDEST PUSH2 0x60A PUSH1 0x40 MLOAD DUP1 PUSH1 0x60 ADD PUSH1 0x40 MSTORE DUP1 PUSH1 0x0 PUSH1 0x1 PUSH1 0x1 PUSH1 0xA0 SHL SUB AND DUP2 MSTORE PUSH1 0x20 ADD PUSH1 0x60 DUP2 MSTORE PUSH1 0x20 ADD PUSH1 0x0 DUP2 MSTORE POP SWAP1 JUMP JUMPDEST PUSH1 0x0 PUSH1 0x1 JUMPDEST PUSH1 0x1 SLOAD DUP2 LT ISZERO PUSH2 0x67F JUMPI PUSH1 0x1 DUP3 DUP2 SLOAD DUP2 LT PUSH2 0x62C JUMPI PUSH2 0x62C PUSH2 0x9DF JUMP JUMPDEST SWAP1 PUSH1 0x0 MSTORE PUSH1 0x20 PUSH1 0x0 KECCAK256 SWAP1 PUSH1 0x3 MUL ADD PUSH1 0x2 ADD SLOAD PUSH1 0x1 DUP3 DUP2 SLOAD DUP2 LT PUSH2 0x651 JUMPI PUSH2 0x651 PUSH2 0x9DF JUMP JUMPDEST SWAP1 PUSH1 0x0 MSTORE PUSH1 0x20 PUSH1 0x0 KECCAK256 SWAP1 PUSH1 0x3 MUL ADD PUSH1 0x2 ADD SLOAD GT ISZERO PUSH2 0x66D JUMPI DUP1 SWAP2 POP JUMPDEST DUP1 PUSH2 0x677 DUP2 PUSH2 0xA23 JUMP JUMPDEST SWAP2 POP POP PUSH2 0x60F JUMP JUMPDEST POP PUSH1 0x1 DUP2 DUP2 SLOAD DUP2 LT PUSH2 0x693 JUMPI PUSH2 0x693 PUSH2 0x9DF JUMP JUMPDEST PUSH1 0x0 SWAP2 DUP3 MSTORE PUSH1 0x20 SWAP2 DUP3 SWAP1 KECCAK256 PUSH1 0x40 DUP1 MLOAD PUSH1 0x60 DUP2 ADD SWAP1 SWAP2 MSTORE PUSH1 0x3 SWAP1 SWAP3 MUL ADD DUP1 SLOAD PUSH1 0x1 PUSH1 0x1 PUSH1 0xA0 SHL SUB AND DUP3 MSTORE PUSH1 0x1 DUP2 ADD DUP1 SLOAD SWAP3 SWAP4 SWAP2 SWAP3 SWAP2 DUP5 ADD SWAP2 PUSH2 0x6D3 SWAP1 PUSH2 0x9A4 JUMP JUMPDEST DUP1 PUSH1 0x1F ADD PUSH1 0x20 DUP1 SWAP2 DIV MUL PUSH1 0x20 ADD PUSH1 0x40 MLOAD SWAP1 DUP2 ADD PUSH1 0x40 MSTORE DUP1 SWAP3 SWAP2 SWAP1 DUP2 DUP2 MSTORE PUSH1 0x20 ADD DUP3 DUP1 SLOAD PUSH2 0x6FF SWAP1 PUSH2 0x9A4 JUMP JUMPDEST DUP1 ISZERO PUSH2 0x74C JUMPI DUP1 PUSH1 0x1F LT PUSH2 0x721 JUMPI PUSH2 0x100 DUP1 DUP4 SLOAD DIV MUL DUP4 MSTORE SWAP2 PUSH1 0x20 ADD SWAP2 PUSH2 0x74C JUMP JUMPDEST DUP3 ADD SWAP2 SWAP1 PUSH1 0x0 MSTORE PUSH1 0x20 PUSH1 0x0 KECCAK256 SWAP1 JUMPDEST DUP2 SLOAD DUP2 MSTORE SWAP1 PUSH1 0x1 ADD SWAP1 PUSH1 0x20 ADD DUP1 DUP4 GT PUSH2 0x72F JUMPI DUP3 SWAP1 SUB PUSH1 0x1F AND DUP3 ADD SWAP2 JUMPDEST POP POP POP POP POP DUP2 MSTORE PUSH1 0x20 ADD PUSH1 0x2 DUP3 ADD SLOAD DUP2 MSTORE POP POP SWAP2 POP POP SWAP1 JUMP JUMPDEST DUP3 DUP1 SLOAD PUSH2 0x771 SWAP1 PUSH2 0x9A4 JUMP JUMPDEST SWAP1 PUSH1 0x0 MSTORE PUSH1 0x20 PUSH1 0x0 KECCAK256 SWAP1 PUSH1 0x1F ADD PUSH1 0x20 SWAP1 DIV DUP2 ADD SWAP3 DUP3 PUSH2 0x793 JUMPI PUSH1 0x0 DUP6 SSTORE PUSH2 0x7D9 JUMP JUMPDEST DUP3 PUSH1 0x1F LT PUSH2 0x7AC JUMPI DUP1 MLOAD PUSH1 0xFF NOT AND DUP4 DUP1 ADD OR DUP6 SSTORE PUSH2 0x7D9 JUMP JUMPDEST DUP3 DUP1 ADD PUSH1 0x1 ADD DUP6 SSTORE DUP3 ISZERO PUSH2 0x7D9 JUMPI SWAP2 DUP3 ADD JUMPDEST DUP3 DUP2 GT ISZERO PUSH2 0x7D9 JUMPI DUP3 MLOAD DUP3 SSTORE SWAP2 PUSH1 0x20 ADD SWAP2 SWAP1 PUSH1 0x1 ADD SWAP1 PUSH2 0x7BE JUMP JUMPDEST POP PUSH2 0x7E5 SWAP3 SWAP2 POP PUSH2 0x7E9 JUMP JUMPDEST POP SWAP1 JUMP JUMPDEST JUMPDEST DUP1 DUP3 GT ISZERO PUSH2 0x7E5 JUMPI PUSH1 0x0 DUP2 SSTORE PUSH1 0x1 ADD PUSH2 0x7EA JUMP JUMPDEST PUSH1 0x0 PUSH1 0x20 DUP1 DUP4 ADD DUP2 DUP5 MSTORE DUP1 DUP6 MLOAD DUP1 DUP4 MSTORE PUSH1 0x40 SWAP3 POP DUP3 DUP7 ADD SWAP2 POP DUP3 DUP2 PUSH1 0x5 SHL DUP8 ADD ADD DUP5 DUP9 ADD PUSH1 0x0 DUP1 JUMPDEST DUP5 DUP2 LT ISZERO PUSH2 0x8B5 JUMPI DUP10 DUP5 SUB PUSH1 0x3F NOT ADD DUP7 MSTORE DUP3 MLOAD DUP1 MLOAD PUSH1 0x1 PUSH1 0x1 PUSH1 0xA0 SHL SUB AND DUP6 MSTORE DUP9 DUP2 ADD MLOAD PUSH1 0x60 DUP11 DUP8 ADD DUP2 SWAP1 MSTORE DUP2 MLOAD SWAP1 DUP8 ADD DUP2 SWAP1 MSTORE DUP5 SWAP2 SWAP1 JUMPDEST DUP1 DUP4 LT ISZERO PUSH2 0x87C JUMPI DUP2 DUP4 ADD DUP13 ADD MLOAD DUP9 DUP5 ADD PUSH1 0x80 ADD MSTORE SWAP2 DUP12 ADD SWAP2 PUSH2 0x85E JUMP JUMPDEST DUP1 DUP4 GT ISZERO PUSH2 0x88D JUMPI DUP6 PUSH1 0x80 DUP3 DUP11 ADD ADD MSTORE JUMPDEST SWAP3 DUP11 ADD MLOAD DUP8 DUP12 ADD MSTORE POP POP SWAP6 DUP9 ADD SWAP6 PUSH1 0x1F ADD PUSH1 0x1F NOT AND SWAP1 SWAP4 ADD PUSH1 0x80 ADD SWAP3 SWAP2 DUP8 ADD SWAP2 PUSH1 0x1 ADD PUSH2 0x826 JUMP JUMPDEST POP SWAP2 SWAP10 SWAP9 POP POP POP POP POP POP POP POP POP JUMP JUMPDEST PUSH1 0x0 PUSH1 0x20 DUP3 DUP5 SUB SLT ISZERO PUSH2 0x8D6 JUMPI PUSH1 0x0 DUP1 REVERT JUMPDEST POP CALLDATALOAD SWAP2 SWAP1 POP JUMP JUMPDEST PUSH4 0x4E487B71 PUSH1 0xE0 SHL PUSH1 0x0 MSTORE PUSH1 0x41 PUSH1 0x4 MSTORE PUSH1 0x24 PUSH1 0x0 REVERT JUMPDEST PUSH1 0x0 PUSH1 0x20 DUP3 DUP5 SUB SLT ISZERO PUSH2 0x905 JUMPI PUSH1 0x0 DUP1 REVERT JUMPDEST DUP2 CALLDATALOAD PUSH8 0xFFFFFFFFFFFFFFFF DUP1 DUP3 GT ISZERO PUSH2 0x91D JUMPI PUSH1 0x0 DUP1 REVERT JUMPDEST DUP2 DUP5 ADD SWAP2 POP DUP5 PUSH1 0x1F DUP4 ADD SLT PUSH2 0x931 JUMPI PUSH1 0x0 DUP1 REVERT JUMPDEST DUP2 CALLDATALOAD DUP2 DUP2 GT ISZERO PUSH2 0x943 JUMPI PUSH2 0x943 PUSH2 0x8DD JUMP JUMPDEST PUSH1 0x40 MLOAD PUSH1 0x1F DUP3 ADD PUSH1 0x1F NOT SWAP1 DUP2 AND PUSH1 0x3F ADD AND DUP2 ADD SWAP1 DUP4 DUP3 GT DUP2 DUP4 LT OR ISZERO PUSH2 0x96B JUMPI PUSH2 0x96B PUSH2 0x8DD JUMP JUMPDEST DUP2 PUSH1 0x40 MSTORE DUP3 DUP2 MSTORE DUP8 PUSH1 0x20 DUP5 DUP8 ADD ADD GT ISZERO PUSH2 0x984 JUMPI PUSH1 0x0 DUP1 REVERT JUMPDEST DUP3 PUSH1 0x20 DUP7 ADD PUSH1 0x20 DUP4 ADD CALLDATACOPY PUSH1 0x0 SWAP3 DUP2 ADD PUSH1 0x20 ADD SWAP3 SWAP1 SWAP3 MSTORE POP SWAP6 SWAP5 POP POP POP POP POP JUMP JUMPDEST PUSH1 0x1 DUP2 DUP2 SHR SWAP1 DUP3 AND DUP1 PUSH2 0x9B8 JUMPI PUSH1 0x7F DUP3 AND SWAP2 POP JUMPDEST PUSH1 0x20 DUP3 LT DUP2 EQ ISZERO PUSH2 0x9D9 JUMPI PUSH4 0x4E487B71 PUSH1 0xE0 SHL PUSH1 0x0 MSTORE PUSH1 0x22 PUSH1 0x4 MSTORE PUSH1 0x24 PUSH1 0x0 REVERT JUMPDEST POP SWAP2 SWAP1 POP JUMP JUMPDEST PUSH4 0x4E487B71 PUSH1 0xE0 SHL PUSH1 0x0 MSTORE PUSH1 0x32 PUSH1 0x4 MSTORE PUSH1 0x24 PUSH1 0x0 REVERT JUMPDEST PUSH4 0x4E487B71 PUSH1 0xE0 SHL PUSH1 0x0 MSTORE PUSH1 0x11 PUSH1 0x4 MSTORE PUSH1 0x24 PUSH1 0x0 REVERT JUMPDEST PUSH1 0x0 DUP3 NOT DUP3 GT ISZERO PUSH2 0xA1E JUMPI PUSH2 0xA1E PUSH2 0x9F5 JUMP JUMPDEST POP ADD SWAP1 JUMP JUMPDEST PUSH1 0x0 PUSH1 0x0 NOT DUP3 EQ ISZERO PUSH2 0xA37 JUMPI PUSH2 0xA37 PUSH2 0x9F5 JUMP JUMPDEST POP PUSH1 0x1 ADD SWAP1 JUMP INVALID LOG2 PUSH5 0x6970667358 0x22 SLT KECCAK256 0x29 SWAP13 0x28 CREATE2 0xFC PUSH2 0xD501 NUMBER 0xCD SWAP5 OR LOG3 0xBD MSIZE PUSH29 0xD983ADD9644395C3CAA78E93A86F2D0B64736F6C634300080A00330000 ",
  "sha1": "44a70831f1c1cc4cce0cd01ba0c10173a05baefd",
  "source": "pragma solidity ^0.8.0;\n// SPDX-License-Identifier: MIT\n\nstruct Article {\n    address author;\n    string text;\n    uint upvotes;\n}\n\ncontract Editorial {\n    Article[] frontpageArticles; \n    Article[] submittedArticles;\n    mapping (address => Article[]) authorToArticles;\n\n    function findMostUpvotedArticle() private view returns (Article memory _article){\n        uint mostUpvotedArticleIndex = 0;\n        for(uint i=1; i < submittedArticles.length; i++) {\n            if (submittedArticles[i].upvotes > submittedArticles[mostUpvotedArticleIndex].upvotes) {\n                mostUpvotedArticleIndex = i;\n            }\n        }\n        return submittedArticles[mostUpvotedArticleIndex];\n    }\n\n    function pinArticleToFrontPage() public {\n        Article memory article = findMostUpvotedArticle();\n        frontpageArticles.push(article);\n    }\n\n    function initArticle(string memory _text) public {\n        Article memory article = Article(msg.sender, _text, 0);\n        authorToArticles[msg.sender].push(article);\n        submittedArticles.push(article);\n    }\n    \n    function emptyArticles(Article[] storage _articles) internal {\n        while(_articles.length > 0)\n            _articles.pop();\n    }\n\n    function upvoteArticle(uint articleIndex) public {\n        require(articleIndex < submittedArticles.length, \"Article index does not exist\");\n        submittedArticles[articleIndex].upvotes += 1;\n    }\n\n    function getUpvotes(uint articleIndex) public view returns (uint _upvotes) {\n        require(articleIndex < submittedArticles.length, \"Article index does not exist\");\n        return submittedArticles[articleIndex].upvotes;\n    }\n\n    function getSubmittedArticles() public view returns (Article[] memory _submittedArticles){\n        return submittedArticles;\n    }\n\n    function getFrontpageArticles() public view returns (Article[] memory _frontpageArticles){\n        return frontpageArticles;\n    }\n}",
  "sourcePath": "contracts/Editorial.sol",
  "type": "contract"
}