{
  "abi": [
    {
      "inputs": [
        {
          "internalType": "address",
          "name": "_editor",
          "type": "address"
        }
      ],
      "name": "getEditorVoted",
      "outputs": [
        {
          "internalType": "bool",
          "name": "_voted",
          "type": "bool"
        }
      ],
      "stateMutability": "view",
      "type": "function"
    },
    {
      "inputs": [],
      "name": "getFrontpageArticles",
      "outputs": [
        {
          "components": [
            {
              "internalType": "address",
              "name": "author",
              "type": "address"
            },
            {
              "internalType": "string",
              "name": "text",
              "type": "string"
            },
            {
              "internalType": "uint256",
              "name": "upvotes",
              "type": "uint256"
            }
          ],
          "internalType": "struct Article[]",
          "name": "_frontpageArticles",
          "type": "tuple[]"
        }
      ],
      "stateMutability": "view",
      "type": "function"
    },
    {
      "inputs": [],
      "name": "getSubmittedArticles",
      "outputs": [
        {
          "components": [
            {
              "internalType": "address",
              "name": "author",
              "type": "address"
            },
            {
              "internalType": "string",
              "name": "text",
              "type": "string"
            },
            {
              "internalType": "uint256",
              "name": "upvotes",
              "type": "uint256"
            }
          ],
          "internalType": "struct Article[]",
          "name": "_submittedArticles",
          "type": "tuple[]"
        }
      ],
      "stateMutability": "view",
      "type": "function"
    },
    {
      "inputs": [
        {
          "internalType": "uint256",
          "name": "articleIndex",
          "type": "uint256"
        }
      ],
      "name": "getUpvotes",
      "outputs": [
        {
          "internalType": "uint256",
          "name": "_upvotes",
          "type": "uint256"
        }
      ],
      "stateMutability": "view",
      "type": "function"
    },
    {
      "inputs": [
        {
          "internalType": "string",
          "name": "_text",
          "type": "string"
        }
      ],
      "name": "initArticle",
      "outputs": [],
      "stateMutability": "nonpayable",
      "type": "function"
    },
    {
      "inputs": [],
      "name": "pinArticleToFrontPage",
      "outputs": [],
      "stateMutability": "nonpayable",
      "type": "function"
    },
    {
      "inputs": [
        {
          "internalType": "uint256[]",
          "name": "articleIndices",
          "type": "uint256[]"
        }
      ],
      "name": "upvoteArticles",
      "outputs": [],
      "stateMutability": "nonpayable",
      "type": "function"
    }
  ],
  "bytecode": "608060405234801561001057600080fd5b50610bda806100206000396000f3fe608060405234801561001057600080fd5b506004361061007d5760003560e01c806398f427021161005b57806398f42702146100b25780639ee3897c146100d3578063acbadfbb146100e6578063cc96cf4e146100f957600080fd5b80631ba9b1a2146100825780635a8538a0146100a05780638d6fc89c146100a8575b600080fd5b61008a610135565b60405161009791906108bf565b60405180910390f35b61008a610246565b6100b061034e565b005b6100c56100c0366004610985565b6103fc565b604051908152602001610097565b6100b06100e13660046109b4565b610481565b6100b06100f4366004610a65565b6105a7565b610125610107366004610ada565b6001600160a01b031660009081526003602052604090205460ff1690565b6040519015158152602001610097565b60606001805480602002602001604051908101604052809291908181526020016000905b8282101561023d57600084815260209081902060408051606081019091526003850290910180546001600160a01b0316825260018101805492939192918401916101a290610b0a565b80601f01602080910402602001604051908101604052809291908181526020018280546101ce90610b0a565b801561021b5780601f106101f05761010080835404028352916020019161021b565b820191906000526020600020905b8154815290600101906020018083116101fe57829003601f168201915b5050505050815260200160028201548152505081526020019060010190610159565b50505050905090565b60606000805480602002602001604051908101604052809291908181526020016000905b8282101561023d57600084815260209081902060408051606081019091526003850290910180546001600160a01b0316825260018101805492939192918401916102b390610b0a565b80601f01602080910402602001604051908101604052809291908181526020018280546102df90610b0a565b801561032c5780601f106103015761010080835404028352916020019161032c565b820191906000526020600020905b81548152906001019060200180831161030f57829003601f168201915b505050505081526020016002820154815250508152602001906001019061026a565b600061035861069e565b60008054600181018255908052815160039091027f290decd9548b62a8d60345a988386fc84ba6bc95484008f6362f93160ef3e563810180546001600160a01b039093166001600160a01b0319909316929092178255602080840151805194955085946103ec937f290decd9548b62a8d60345a988386fc84ba6bc95484008f6362f93160ef3e56401929190910190610826565b5060408201518160020155505050565b60015460009082106104555760405162461bcd60e51b815260206004820152601c60248201527f41727469636c6520696e64657820646f6573206e6f742065786973740000000060448201526064015b60405180910390fd5b6001828154811061046857610468610b45565b9060005260206000209060030201600201549050919050565b6040805160608101825233808252602080830185815260008486018190529283526002825293822080546001808201835591845292829020845160039094020180546001600160a01b0319166001600160a01b0390941693909317835593518051939485946104f7939185019290910190610826565b506040919091015160029091015560018054808201825560009190915281517fb10e2d527612073b26eecdfd717e6a320cf44b4afac2b0732d9fcbe2b7fa0cf6600390920291820180546001600160a01b0319166001600160a01b0390921691909117815560208084015180518594610596937fb10e2d527612073b26eecdfd717e6a320cf44b4afac2b0732d9fcbe2b7fa0cf7909101920190610826565b506040820151816002015550505050565b60005b8181101561067f576001548383838181106105c7576105c7610b45565b905060200201351061061b5760405162461bcd60e51b815260206004820152601c60248201527f41727469636c6520696e64657820646f6573206e6f7420657869737400000000604482015260640161044c565b60018084848481811061063057610630610b45565b905060200201358154811061064757610647610b45565b906000526020600020906003020160020160008282546106679190610b71565b9091555081905061067781610b89565b9150506105aa565b5050336000908152600360205260409020805460ff1916600117905550565b6106cb604051806060016040528060006001600160a01b0316815260200160608152602001600081525090565b600060015b60015481101561074057600182815481106106ed576106ed610b45565b9060005260206000209060030201600201546001828154811061071257610712610b45565b906000526020600020906003020160020154111561072e578091505b8061073881610b89565b9150506106d0565b506001818154811061075457610754610b45565b6000918252602091829020604080516060810190915260039092020180546001600160a01b03168252600181018054929391929184019161079490610b0a565b80601f01602080910402602001604051908101604052809291908181526020018280546107c090610b0a565b801561080d5780601f106107e25761010080835404028352916020019161080d565b820191906000526020600020905b8154815290600101906020018083116107f057829003601f168201915b5050505050815260200160028201548152505091505090565b82805461083290610b0a565b90600052602060002090601f016020900481019282610854576000855561089a565b82601f1061086d57805160ff191683800117855561089a565b8280016001018555821561089a579182015b8281111561089a57825182559160200191906001019061087f565b506108a69291506108aa565b5090565b5b808211156108a657600081556001016108ab565b60006020808301818452808551808352604092508286019150828160051b8701018488016000805b8481101561097657898403603f19018652825180516001600160a01b031685528881015160608a870181905281519087018190528491905b8083101561093d578183018c015188840160800152918b019161091f565b8083111561094e57856080828a0101525b928a0151878b0152505095880195601f01601f191690930160800192918701916001016108e7565b50919998505050505050505050565b60006020828403121561099757600080fd5b5035919050565b634e487b7160e01b600052604160045260246000fd5b6000602082840312156109c657600080fd5b813567ffffffffffffffff808211156109de57600080fd5b818401915084601f8301126109f257600080fd5b813581811115610a0457610a0461099e565b604051601f8201601f19908116603f01168101908382118183101715610a2c57610a2c61099e565b81604052828152876020848701011115610a4557600080fd5b826020860160208301376000928101602001929092525095945050505050565b60008060208385031215610a7857600080fd5b823567ffffffffffffffff80821115610a9057600080fd5b818501915085601f830112610aa457600080fd5b813581811115610ab357600080fd5b8660208260051b8501011115610ac857600080fd5b60209290920196919550909350505050565b600060208284031215610aec57600080fd5b81356001600160a01b0381168114610b0357600080fd5b9392505050565b600181811c90821680610b1e57607f821691505b60208210811415610b3f57634e487b7160e01b600052602260045260246000fd5b50919050565b634e487b7160e01b600052603260045260246000fd5b634e487b7160e01b600052601160045260246000fd5b60008219821115610b8457610b84610b5b565b500190565b6000600019821415610b9d57610b9d610b5b565b506001019056fea2646970667358221220844e721ac64b11e8798a2f0ea61297a354641e46000a8853c4579f39a08024b564736f6c634300080a0033",
  "bytecodeSha1": "d46c584cb41514ba9e01c67b4fe6793c520b3119",
  "compiler": {
    "evm_version": "istanbul",
    "optimizer": {
      "enabled": true,
      "runs": 200
    },
    "version": "0.8.10+commit.fc410830"
  },
  "contractName": "Editorial",
  "language": "Solidity",
  "natspec": {
    "kind": "dev",
    "methods": {},
    "version": 1
  },
  "opcodes": "PUSH1 0x80 PUSH1 0x40 MSTORE CALLVALUE DUP1 ISZERO PUSH2 0x10 JUMPI PUSH1 0x0 DUP1 REVERT JUMPDEST POP PUSH1 0x4 CALLDATASIZE LT PUSH2 0x7D JUMPI PUSH1 0x0 CALLDATALOAD PUSH1 0xE0 SHR DUP1 PUSH4 0x98F42702 GT PUSH2 0x5B JUMPI DUP1 PUSH4 0x98F42702 EQ PUSH2 0xB2 JUMPI DUP1 PUSH4 0x9EE3897C EQ PUSH2 0xD3 JUMPI DUP1 PUSH4 0xACBADFBB EQ PUSH2 0xE6 JUMPI DUP1 PUSH4 0xCC96CF4E EQ PUSH2 0xF9 JUMPI PUSH1 0x0 DUP1 REVERT JUMPDEST DUP1 PUSH4 0x1BA9B1A2 EQ PUSH2 0x82 JUMPI DUP1 PUSH4 0x5A8538A0 EQ PUSH2 0xA0 JUMPI DUP1 PUSH4 0x8D6FC89C EQ PUSH2 0xA8 JUMPI JUMPDEST PUSH1 0x0 DUP1 REVERT JUMPDEST PUSH2 0x8A PUSH2 0x135 JUMP JUMPDEST PUSH1 0x40 MLOAD PUSH2 0x97 SWAP2 SWAP1 PUSH2 0x8BF JUMP JUMPDEST PUSH1 0x40 MLOAD DUP1 SWAP2 SUB SWAP1 RETURN JUMPDEST PUSH2 0x8A PUSH2 0x246 JUMP JUMPDEST PUSH2 0xB0 PUSH2 0x34E JUMP JUMPDEST STOP JUMPDEST PUSH2 0xC5 PUSH2 0xC0 CALLDATASIZE PUSH1 0x4 PUSH2 0x985 JUMP JUMPDEST PUSH2 0x3FC JUMP JUMPDEST PUSH1 0x40 MLOAD SWAP1 DUP2 MSTORE PUSH1 0x20 ADD PUSH2 0x97 JUMP JUMPDEST PUSH2 0xB0 PUSH2 0xE1 CALLDATASIZE PUSH1 0x4 PUSH2 0x9B4 JUMP JUMPDEST PUSH2 0x481 JUMP JUMPDEST PUSH2 0xB0 PUSH2 0xF4 CALLDATASIZE PUSH1 0x4 PUSH2 0xA65 JUMP JUMPDEST PUSH2 0x5A7 JUMP JUMPDEST PUSH2 0x125 PUSH2 0x107 CALLDATASIZE PUSH1 0x4 PUSH2 0xADA JUMP JUMPDEST PUSH1 0x1 PUSH1 0x1 PUSH1 0xA0 SHL SUB AND PUSH1 0x0 SWAP1 DUP2 MSTORE PUSH1 0x3 PUSH1 0x20 MSTORE PUSH1 0x40 SWAP1 KECCAK256 SLOAD PUSH1 0xFF AND SWAP1 JUMP JUMPDEST PUSH1 0x40 MLOAD SWAP1 ISZERO ISZERO DUP2 MSTORE PUSH1 0x20 ADD PUSH2 0x97 JUMP JUMPDEST PUSH1 0x60 PUSH1 0x1 DUP1 SLOAD DUP1 PUSH1 0x20 MUL PUSH1 0x20 ADD PUSH1 0x40 MLOAD SWAP1 DUP2 ADD PUSH1 0x40 MSTORE DUP1 SWAP3 SWAP2 SWAP1 DUP2 DUP2 MSTORE PUSH1 0x20 ADD PUSH1 0x0 SWAP1 JUMPDEST DUP3 DUP3 LT ISZERO PUSH2 0x23D JUMPI PUSH1 0x0 DUP5 DUP2 MSTORE PUSH1 0x20 SWAP1 DUP2 SWAP1 KECCAK256 PUSH1 0x40 DUP1 MLOAD PUSH1 0x60 DUP2 ADD SWAP1 SWAP2 MSTORE PUSH1 0x3 DUP6 MUL SWAP1 SWAP2 ADD DUP1 SLOAD PUSH1 0x1 PUSH1 0x1 PUSH1 0xA0 SHL SUB AND DUP3 MSTORE PUSH1 0x1 DUP2 ADD DUP1 SLOAD SWAP3 SWAP4 SWAP2 SWAP3 SWAP2 DUP5 ADD SWAP2 PUSH2 0x1A2 SWAP1 PUSH2 0xB0A JUMP JUMPDEST DUP1 PUSH1 0x1F ADD PUSH1 0x20 DUP1 SWAP2 DIV MUL PUSH1 0x20 ADD PUSH1 0x40 MLOAD SWAP1 DUP2 ADD PUSH1 0x40 MSTORE DUP1 SWAP3 SWAP2 SWAP1 DUP2 DUP2 MSTORE PUSH1 0x20 ADD DUP3 DUP1 SLOAD PUSH2 0x1CE SWAP1 PUSH2 0xB0A JUMP JUMPDEST DUP1 ISZERO PUSH2 0x21B JUMPI DUP1 PUSH1 0x1F LT PUSH2 0x1F0 JUMPI PUSH2 0x100 DUP1 DUP4 SLOAD DIV MUL DUP4 MSTORE SWAP2 PUSH1 0x20 ADD SWAP2 PUSH2 0x21B JUMP JUMPDEST DUP3 ADD SWAP2 SWAP1 PUSH1 0x0 MSTORE PUSH1 0x20 PUSH1 0x0 KECCAK256 SWAP1 JUMPDEST DUP2 SLOAD DUP2 MSTORE SWAP1 PUSH1 0x1 ADD SWAP1 PUSH1 0x20 ADD DUP1 DUP4 GT PUSH2 0x1FE JUMPI DUP3 SWAP1 SUB PUSH1 0x1F AND DUP3 ADD SWAP2 JUMPDEST POP POP POP POP POP DUP2 MSTORE PUSH1 0x20 ADD PUSH1 0x2 DUP3 ADD SLOAD DUP2 MSTORE POP POP DUP2 MSTORE PUSH1 0x20 ADD SWAP1 PUSH1 0x1 ADD SWAP1 PUSH2 0x159 JUMP JUMPDEST POP POP POP POP SWAP1 POP SWAP1 JUMP JUMPDEST PUSH1 0x60 PUSH1 0x0 DUP1 SLOAD DUP1 PUSH1 0x20 MUL PUSH1 0x20 ADD PUSH1 0x40 MLOAD SWAP1 DUP2 ADD PUSH1 0x40 MSTORE DUP1 SWAP3 SWAP2 SWAP1 DUP2 DUP2 MSTORE PUSH1 0x20 ADD PUSH1 0x0 SWAP1 JUMPDEST DUP3 DUP3 LT ISZERO PUSH2 0x23D JUMPI PUSH1 0x0 DUP5 DUP2 MSTORE PUSH1 0x20 SWAP1 DUP2 SWAP1 KECCAK256 PUSH1 0x40 DUP1 MLOAD PUSH1 0x60 DUP2 ADD SWAP1 SWAP2 MSTORE PUSH1 0x3 DUP6 MUL SWAP1 SWAP2 ADD DUP1 SLOAD PUSH1 0x1 PUSH1 0x1 PUSH1 0xA0 SHL SUB AND DUP3 MSTORE PUSH1 0x1 DUP2 ADD DUP1 SLOAD SWAP3 SWAP4 SWAP2 SWAP3 SWAP2 DUP5 ADD SWAP2 PUSH2 0x2B3 SWAP1 PUSH2 0xB0A JUMP JUMPDEST DUP1 PUSH1 0x1F ADD PUSH1 0x20 DUP1 SWAP2 DIV MUL PUSH1 0x20 ADD PUSH1 0x40 MLOAD SWAP1 DUP2 ADD PUSH1 0x40 MSTORE DUP1 SWAP3 SWAP2 SWAP1 DUP2 DUP2 MSTORE PUSH1 0x20 ADD DUP3 DUP1 SLOAD PUSH2 0x2DF SWAP1 PUSH2 0xB0A JUMP JUMPDEST DUP1 ISZERO PUSH2 0x32C JUMPI DUP1 PUSH1 0x1F LT PUSH2 0x301 JUMPI PUSH2 0x100 DUP1 DUP4 SLOAD DIV MUL DUP4 MSTORE SWAP2 PUSH1 0x20 ADD SWAP2 PUSH2 0x32C JUMP JUMPDEST DUP3 ADD SWAP2 SWAP1 PUSH1 0x0 MSTORE PUSH1 0x20 PUSH1 0x0 KECCAK256 SWAP1 JUMPDEST DUP2 SLOAD DUP2 MSTORE SWAP1 PUSH1 0x1 ADD SWAP1 PUSH1 0x20 ADD DUP1 DUP4 GT PUSH2 0x30F JUMPI DUP3 SWAP1 SUB PUSH1 0x1F AND DUP3 ADD SWAP2 JUMPDEST POP POP POP POP POP DUP2 MSTORE PUSH1 0x20 ADD PUSH1 0x2 DUP3 ADD SLOAD DUP2 MSTORE POP POP DUP2 MSTORE PUSH1 0x20 ADD SWAP1 PUSH1 0x1 ADD SWAP1 PUSH2 0x26A JUMP JUMPDEST PUSH1 0x0 PUSH2 0x358 PUSH2 0x69E JUMP JUMPDEST PUSH1 0x0 DUP1 SLOAD PUSH1 0x1 DUP2 ADD DUP3 SSTORE SWAP1 DUP1 MSTORE DUP2 MLOAD PUSH1 0x3 SWAP1 SWAP2 MUL PUSH32 0x290DECD9548B62A8D60345A988386FC84BA6BC95484008F6362F93160EF3E563 DUP2 ADD DUP1 SLOAD PUSH1 0x1 PUSH1 0x1 PUSH1 0xA0 SHL SUB SWAP1 SWAP4 AND PUSH1 0x1 PUSH1 0x1 PUSH1 0xA0 SHL SUB NOT SWAP1 SWAP4 AND SWAP3 SWAP1 SWAP3 OR DUP3 SSTORE PUSH1 0x20 DUP1 DUP5 ADD MLOAD DUP1 MLOAD SWAP5 SWAP6 POP DUP6 SWAP5 PUSH2 0x3EC SWAP4 PUSH32 0x290DECD9548B62A8D60345A988386FC84BA6BC95484008F6362F93160EF3E564 ADD SWAP3 SWAP2 SWAP1 SWAP2 ADD SWAP1 PUSH2 0x826 JUMP JUMPDEST POP PUSH1 0x40 DUP3 ADD MLOAD DUP2 PUSH1 0x2 ADD SSTORE POP POP POP JUMP JUMPDEST PUSH1 0x1 SLOAD PUSH1 0x0 SWAP1 DUP3 LT PUSH2 0x455 JUMPI PUSH1 0x40 MLOAD PUSH3 0x461BCD PUSH1 0xE5 SHL DUP2 MSTORE PUSH1 0x20 PUSH1 0x4 DUP3 ADD MSTORE PUSH1 0x1C PUSH1 0x24 DUP3 ADD MSTORE PUSH32 0x41727469636C6520696E64657820646F6573206E6F7420657869737400000000 PUSH1 0x44 DUP3 ADD MSTORE PUSH1 0x64 ADD JUMPDEST PUSH1 0x40 MLOAD DUP1 SWAP2 SUB SWAP1 REVERT JUMPDEST PUSH1 0x1 DUP3 DUP2 SLOAD DUP2 LT PUSH2 0x468 JUMPI PUSH2 0x468 PUSH2 0xB45 JUMP JUMPDEST SWAP1 PUSH1 0x0 MSTORE PUSH1 0x20 PUSH1 0x0 KECCAK256 SWAP1 PUSH1 0x3 MUL ADD PUSH1 0x2 ADD SLOAD SWAP1 POP SWAP2 SWAP1 POP JUMP JUMPDEST PUSH1 0x40 DUP1 MLOAD PUSH1 0x60 DUP2 ADD DUP3 MSTORE CALLER DUP1 DUP3 MSTORE PUSH1 0x20 DUP1 DUP4 ADD DUP6 DUP2 MSTORE PUSH1 0x0 DUP5 DUP7 ADD DUP2 SWAP1 MSTORE SWAP3 DUP4 MSTORE PUSH1 0x2 DUP3 MSTORE SWAP4 DUP3 KECCAK256 DUP1 SLOAD PUSH1 0x1 DUP1 DUP3 ADD DUP4 SSTORE SWAP2 DUP5 MSTORE SWAP3 DUP3 SWAP1 KECCAK256 DUP5 MLOAD PUSH1 0x3 SWAP1 SWAP5 MUL ADD DUP1 SLOAD PUSH1 0x1 PUSH1 0x1 PUSH1 0xA0 SHL SUB NOT AND PUSH1 0x1 PUSH1 0x1 PUSH1 0xA0 SHL SUB SWAP1 SWAP5 AND SWAP4 SWAP1 SWAP4 OR DUP4 SSTORE SWAP4 MLOAD DUP1 MLOAD SWAP4 SWAP5 DUP6 SWAP5 PUSH2 0x4F7 SWAP4 SWAP2 DUP6 ADD SWAP3 SWAP1 SWAP2 ADD SWAP1 PUSH2 0x826 JUMP JUMPDEST POP PUSH1 0x40 SWAP2 SWAP1 SWAP2 ADD MLOAD PUSH1 0x2 SWAP1 SWAP2 ADD SSTORE PUSH1 0x1 DUP1 SLOAD DUP1 DUP3 ADD DUP3 SSTORE PUSH1 0x0 SWAP2 SWAP1 SWAP2 MSTORE DUP2 MLOAD PUSH32 0xB10E2D527612073B26EECDFD717E6A320CF44B4AFAC2B0732D9FCBE2B7FA0CF6 PUSH1 0x3 SWAP1 SWAP3 MUL SWAP2 DUP3 ADD DUP1 SLOAD PUSH1 0x1 PUSH1 0x1 PUSH1 0xA0 SHL SUB NOT AND PUSH1 0x1 PUSH1 0x1 PUSH1 0xA0 SHL SUB SWAP1 SWAP3 AND SWAP2 SWAP1 SWAP2 OR DUP2 SSTORE PUSH1 0x20 DUP1 DUP5 ADD MLOAD DUP1 MLOAD DUP6 SWAP5 PUSH2 0x596 SWAP4 PUSH32 0xB10E2D527612073B26EECDFD717E6A320CF44B4AFAC2B0732D9FCBE2B7FA0CF7 SWAP1 SWAP2 ADD SWAP3 ADD SWAP1 PUSH2 0x826 JUMP JUMPDEST POP PUSH1 0x40 DUP3 ADD MLOAD DUP2 PUSH1 0x2 ADD SSTORE POP POP POP POP JUMP JUMPDEST PUSH1 0x0 JUMPDEST DUP2 DUP2 LT ISZERO PUSH2 0x67F JUMPI PUSH1 0x1 SLOAD DUP4 DUP4 DUP4 DUP2 DUP2 LT PUSH2 0x5C7 JUMPI PUSH2 0x5C7 PUSH2 0xB45 JUMP JUMPDEST SWAP1 POP PUSH1 0x20 MUL ADD CALLDATALOAD LT PUSH2 0x61B JUMPI PUSH1 0x40 MLOAD PUSH3 0x461BCD PUSH1 0xE5 SHL DUP2 MSTORE PUSH1 0x20 PUSH1 0x4 DUP3 ADD MSTORE PUSH1 0x1C PUSH1 0x24 DUP3 ADD MSTORE PUSH32 0x41727469636C6520696E64657820646F6573206E6F7420657869737400000000 PUSH1 0x44 DUP3 ADD MSTORE PUSH1 0x64 ADD PUSH2 0x44C JUMP JUMPDEST PUSH1 0x1 DUP1 DUP5 DUP5 DUP5 DUP2 DUP2 LT PUSH2 0x630 JUMPI PUSH2 0x630 PUSH2 0xB45 JUMP JUMPDEST SWAP1 POP PUSH1 0x20 MUL ADD CALLDATALOAD DUP2 SLOAD DUP2 LT PUSH2 0x647 JUMPI PUSH2 0x647 PUSH2 0xB45 JUMP JUMPDEST SWAP1 PUSH1 0x0 MSTORE PUSH1 0x20 PUSH1 0x0 KECCAK256 SWAP1 PUSH1 0x3 MUL ADD PUSH1 0x2 ADD PUSH1 0x0 DUP3 DUP3 SLOAD PUSH2 0x667 SWAP2 SWAP1 PUSH2 0xB71 JUMP JUMPDEST SWAP1 SWAP2 SSTORE POP DUP2 SWAP1 POP PUSH2 0x677 DUP2 PUSH2 0xB89 JUMP JUMPDEST SWAP2 POP POP PUSH2 0x5AA JUMP JUMPDEST POP POP CALLER PUSH1 0x0 SWAP1 DUP2 MSTORE PUSH1 0x3 PUSH1 0x20 MSTORE PUSH1 0x40 SWAP1 KECCAK256 DUP1 SLOAD PUSH1 0xFF NOT AND PUSH1 0x1 OR SWAP1 SSTORE POP JUMP JUMPDEST PUSH2 0x6CB PUSH1 0x40 MLOAD DUP1 PUSH1 0x60 ADD PUSH1 0x40 MSTORE DUP1 PUSH1 0x0 PUSH1 0x1 PUSH1 0x1 PUSH1 0xA0 SHL SUB AND DUP2 MSTORE PUSH1 0x20 ADD PUSH1 0x60 DUP2 MSTORE PUSH1 0x20 ADD PUSH1 0x0 DUP2 MSTORE POP SWAP1 JUMP JUMPDEST PUSH1 0x0 PUSH1 0x1 JUMPDEST PUSH1 0x1 SLOAD DUP2 LT ISZERO PUSH2 0x740 JUMPI PUSH1 0x1 DUP3 DUP2 SLOAD DUP2 LT PUSH2 0x6ED JUMPI PUSH2 0x6ED PUSH2 0xB45 JUMP JUMPDEST SWAP1 PUSH1 0x0 MSTORE PUSH1 0x20 PUSH1 0x0 KECCAK256 SWAP1 PUSH1 0x3 MUL ADD PUSH1 0x2 ADD SLOAD PUSH1 0x1 DUP3 DUP2 SLOAD DUP2 LT PUSH2 0x712 JUMPI PUSH2 0x712 PUSH2 0xB45 JUMP JUMPDEST SWAP1 PUSH1 0x0 MSTORE PUSH1 0x20 PUSH1 0x0 KECCAK256 SWAP1 PUSH1 0x3 MUL ADD PUSH1 0x2 ADD SLOAD GT ISZERO PUSH2 0x72E JUMPI DUP1 SWAP2 POP JUMPDEST DUP1 PUSH2 0x738 DUP2 PUSH2 0xB89 JUMP JUMPDEST SWAP2 POP POP PUSH2 0x6D0 JUMP JUMPDEST POP PUSH1 0x1 DUP2 DUP2 SLOAD DUP2 LT PUSH2 0x754 JUMPI PUSH2 0x754 PUSH2 0xB45 JUMP JUMPDEST PUSH1 0x0 SWAP2 DUP3 MSTORE PUSH1 0x20 SWAP2 DUP3 SWAP1 KECCAK256 PUSH1 0x40 DUP1 MLOAD PUSH1 0x60 DUP2 ADD SWAP1 SWAP2 MSTORE PUSH1 0x3 SWAP1 SWAP3 MUL ADD DUP1 SLOAD PUSH1 0x1 PUSH1 0x1 PUSH1 0xA0 SHL SUB AND DUP3 MSTORE PUSH1 0x1 DUP2 ADD DUP1 SLOAD SWAP3 SWAP4 SWAP2 SWAP3 SWAP2 DUP5 ADD SWAP2 PUSH2 0x794 SWAP1 PUSH2 0xB0A JUMP JUMPDEST DUP1 PUSH1 0x1F ADD PUSH1 0x20 DUP1 SWAP2 DIV MUL PUSH1 0x20 ADD PUSH1 0x40 MLOAD SWAP1 DUP2 ADD PUSH1 0x40 MSTORE DUP1 SWAP3 SWAP2 SWAP1 DUP2 DUP2 MSTORE PUSH1 0x20 ADD DUP3 DUP1 SLOAD PUSH2 0x7C0 SWAP1 PUSH2 0xB0A JUMP JUMPDEST DUP1 ISZERO PUSH2 0x80D JUMPI DUP1 PUSH1 0x1F LT PUSH2 0x7E2 JUMPI PUSH2 0x100 DUP1 DUP4 SLOAD DIV MUL DUP4 MSTORE SWAP2 PUSH1 0x20 ADD SWAP2 PUSH2 0x80D JUMP JUMPDEST DUP3 ADD SWAP2 SWAP1 PUSH1 0x0 MSTORE PUSH1 0x20 PUSH1 0x0 KECCAK256 SWAP1 JUMPDEST DUP2 SLOAD DUP2 MSTORE SWAP1 PUSH1 0x1 ADD SWAP1 PUSH1 0x20 ADD DUP1 DUP4 GT PUSH2 0x7F0 JUMPI DUP3 SWAP1 SUB PUSH1 0x1F AND DUP3 ADD SWAP2 JUMPDEST POP POP POP POP POP DUP2 MSTORE PUSH1 0x20 ADD PUSH1 0x2 DUP3 ADD SLOAD DUP2 MSTORE POP POP SWAP2 POP POP SWAP1 JUMP JUMPDEST DUP3 DUP1 SLOAD PUSH2 0x832 SWAP1 PUSH2 0xB0A JUMP JUMPDEST SWAP1 PUSH1 0x0 MSTORE PUSH1 0x20 PUSH1 0x0 KECCAK256 SWAP1 PUSH1 0x1F ADD PUSH1 0x20 SWAP1 DIV DUP2 ADD SWAP3 DUP3 PUSH2 0x854 JUMPI PUSH1 0x0 DUP6 SSTORE PUSH2 0x89A JUMP JUMPDEST DUP3 PUSH1 0x1F LT PUSH2 0x86D JUMPI DUP1 MLOAD PUSH1 0xFF NOT AND DUP4 DUP1 ADD OR DUP6 SSTORE PUSH2 0x89A JUMP JUMPDEST DUP3 DUP1 ADD PUSH1 0x1 ADD DUP6 SSTORE DUP3 ISZERO PUSH2 0x89A JUMPI SWAP2 DUP3 ADD JUMPDEST DUP3 DUP2 GT ISZERO PUSH2 0x89A JUMPI DUP3 MLOAD DUP3 SSTORE SWAP2 PUSH1 0x20 ADD SWAP2 SWAP1 PUSH1 0x1 ADD SWAP1 PUSH2 0x87F JUMP JUMPDEST POP PUSH2 0x8A6 SWAP3 SWAP2 POP PUSH2 0x8AA JUMP JUMPDEST POP SWAP1 JUMP JUMPDEST JUMPDEST DUP1 DUP3 GT ISZERO PUSH2 0x8A6 JUMPI PUSH1 0x0 DUP2 SSTORE PUSH1 0x1 ADD PUSH2 0x8AB JUMP JUMPDEST PUSH1 0x0 PUSH1 0x20 DUP1 DUP4 ADD DUP2 DUP5 MSTORE DUP1 DUP6 MLOAD DUP1 DUP4 MSTORE PUSH1 0x40 SWAP3 POP DUP3 DUP7 ADD SWAP2 POP DUP3 DUP2 PUSH1 0x5 SHL DUP8 ADD ADD DUP5 DUP9 ADD PUSH1 0x0 DUP1 JUMPDEST DUP5 DUP2 LT ISZERO PUSH2 0x976 JUMPI DUP10 DUP5 SUB PUSH1 0x3F NOT ADD DUP7 MSTORE DUP3 MLOAD DUP1 MLOAD PUSH1 0x1 PUSH1 0x1 PUSH1 0xA0 SHL SUB AND DUP6 MSTORE DUP9 DUP2 ADD MLOAD PUSH1 0x60 DUP11 DUP8 ADD DUP2 SWAP1 MSTORE DUP2 MLOAD SWAP1 DUP8 ADD DUP2 SWAP1 MSTORE DUP5 SWAP2 SWAP1 JUMPDEST DUP1 DUP4 LT ISZERO PUSH2 0x93D JUMPI DUP2 DUP4 ADD DUP13 ADD MLOAD DUP9 DUP5 ADD PUSH1 0x80 ADD MSTORE SWAP2 DUP12 ADD SWAP2 PUSH2 0x91F JUMP JUMPDEST DUP1 DUP4 GT ISZERO PUSH2 0x94E JUMPI DUP6 PUSH1 0x80 DUP3 DUP11 ADD ADD MSTORE JUMPDEST SWAP3 DUP11 ADD MLOAD DUP8 DUP12 ADD MSTORE POP POP SWAP6 DUP9 ADD SWAP6 PUSH1 0x1F ADD PUSH1 0x1F NOT AND SWAP1 SWAP4 ADD PUSH1 0x80 ADD SWAP3 SWAP2 DUP8 ADD SWAP2 PUSH1 0x1 ADD PUSH2 0x8E7 JUMP JUMPDEST POP SWAP2 SWAP10 SWAP9 POP POP POP POP POP POP POP POP POP JUMP JUMPDEST PUSH1 0x0 PUSH1 0x20 DUP3 DUP5 SUB SLT ISZERO PUSH2 0x997 JUMPI PUSH1 0x0 DUP1 REVERT JUMPDEST POP CALLDATALOAD SWAP2 SWAP1 POP JUMP JUMPDEST PUSH4 0x4E487B71 PUSH1 0xE0 SHL PUSH1 0x0 MSTORE PUSH1 0x41 PUSH1 0x4 MSTORE PUSH1 0x24 PUSH1 0x0 REVERT JUMPDEST PUSH1 0x0 PUSH1 0x20 DUP3 DUP5 SUB SLT ISZERO PUSH2 0x9C6 JUMPI PUSH1 0x0 DUP1 REVERT JUMPDEST DUP2 CALLDATALOAD PUSH8 0xFFFFFFFFFFFFFFFF DUP1 DUP3 GT ISZERO PUSH2 0x9DE JUMPI PUSH1 0x0 DUP1 REVERT JUMPDEST DUP2 DUP5 ADD SWAP2 POP DUP5 PUSH1 0x1F DUP4 ADD SLT PUSH2 0x9F2 JUMPI PUSH1 0x0 DUP1 REVERT JUMPDEST DUP2 CALLDATALOAD DUP2 DUP2 GT ISZERO PUSH2 0xA04 JUMPI PUSH2 0xA04 PUSH2 0x99E JUMP JUMPDEST PUSH1 0x40 MLOAD PUSH1 0x1F DUP3 ADD PUSH1 0x1F NOT SWAP1 DUP2 AND PUSH1 0x3F ADD AND DUP2 ADD SWAP1 DUP4 DUP3 GT DUP2 DUP4 LT OR ISZERO PUSH2 0xA2C JUMPI PUSH2 0xA2C PUSH2 0x99E JUMP JUMPDEST DUP2 PUSH1 0x40 MSTORE DUP3 DUP2 MSTORE DUP8 PUSH1 0x20 DUP5 DUP8 ADD ADD GT ISZERO PUSH2 0xA45 JUMPI PUSH1 0x0 DUP1 REVERT JUMPDEST DUP3 PUSH1 0x20 DUP7 ADD PUSH1 0x20 DUP4 ADD CALLDATACOPY PUSH1 0x0 SWAP3 DUP2 ADD PUSH1 0x20 ADD SWAP3 SWAP1 SWAP3 MSTORE POP SWAP6 SWAP5 POP POP POP POP POP JUMP JUMPDEST PUSH1 0x0 DUP1 PUSH1 0x20 DUP4 DUP6 SUB SLT ISZERO PUSH2 0xA78 JUMPI PUSH1 0x0 DUP1 REVERT JUMPDEST DUP3 CALLDATALOAD PUSH8 0xFFFFFFFFFFFFFFFF DUP1 DUP3 GT ISZERO PUSH2 0xA90 JUMPI PUSH1 0x0 DUP1 REVERT JUMPDEST DUP2 DUP6 ADD SWAP2 POP DUP6 PUSH1 0x1F DUP4 ADD SLT PUSH2 0xAA4 JUMPI PUSH1 0x0 DUP1 REVERT JUMPDEST DUP2 CALLDATALOAD DUP2 DUP2 GT ISZERO PUSH2 0xAB3 JUMPI PUSH1 0x0 DUP1 REVERT JUMPDEST DUP7 PUSH1 0x20 DUP3 PUSH1 0x5 SHL DUP6 ADD ADD GT ISZERO PUSH2 0xAC8 JUMPI PUSH1 0x0 DUP1 REVERT JUMPDEST PUSH1 0x20 SWAP3 SWAP1 SWAP3 ADD SWAP7 SWAP2 SWAP6 POP SWAP1 SWAP4 POP POP POP POP JUMP JUMPDEST PUSH1 0x0 PUSH1 0x20 DUP3 DUP5 SUB SLT ISZERO PUSH2 0xAEC JUMPI PUSH1 0x0 DUP1 REVERT JUMPDEST DUP2 CALLDATALOAD PUSH1 0x1 PUSH1 0x1 PUSH1 0xA0 SHL SUB DUP2 AND DUP2 EQ PUSH2 0xB03 JUMPI PUSH1 0x0 DUP1 REVERT JUMPDEST SWAP4 SWAP3 POP POP POP JUMP JUMPDEST PUSH1 0x1 DUP2 DUP2 SHR SWAP1 DUP3 AND DUP1 PUSH2 0xB1E JUMPI PUSH1 0x7F DUP3 AND SWAP2 POP JUMPDEST PUSH1 0x20 DUP3 LT DUP2 EQ ISZERO PUSH2 0xB3F JUMPI PUSH4 0x4E487B71 PUSH1 0xE0 SHL PUSH1 0x0 MSTORE PUSH1 0x22 PUSH1 0x4 MSTORE PUSH1 0x24 PUSH1 0x0 REVERT JUMPDEST POP SWAP2 SWAP1 POP JUMP JUMPDEST PUSH4 0x4E487B71 PUSH1 0xE0 SHL PUSH1 0x0 MSTORE PUSH1 0x32 PUSH1 0x4 MSTORE PUSH1 0x24 PUSH1 0x0 REVERT JUMPDEST PUSH4 0x4E487B71 PUSH1 0xE0 SHL PUSH1 0x0 MSTORE PUSH1 0x11 PUSH1 0x4 MSTORE PUSH1 0x24 PUSH1 0x0 REVERT JUMPDEST PUSH1 0x0 DUP3 NOT DUP3 GT ISZERO PUSH2 0xB84 JUMPI PUSH2 0xB84 PUSH2 0xB5B JUMP JUMPDEST POP ADD SWAP1 JUMP JUMPDEST PUSH1 0x0 PUSH1 0x0 NOT DUP3 EQ ISZERO PUSH2 0xB9D JUMPI PUSH2 0xB9D PUSH2 0xB5B JUMP JUMPDEST POP PUSH1 0x1 ADD SWAP1 JUMP INVALID LOG2 PUSH5 0x6970667358 0x22 SLT KECCAK256 DUP5 0x4E PUSH19 0x1AC64B11E8798A2F0EA61297A354641E46000A DUP9 MSTORE8 0xC4 JUMPI SWAP16 CODECOPY LOG0 DUP1 0x24 0xB5 PUSH5 0x736F6C6343 STOP ADDMOD EXP STOP CALLER ",
  "sha1": "b212ef655f154615ad340cd69d212bced1045195",
  "source": "pragma solidity ^0.8.0;\n// SPDX-License-Identifier: MIT\n\nstruct Article {\n    address author;\n    string text;\n    uint upvotes;\n}\n\ncontract Editorial {\n    Article[] frontpageArticles; \n    Article[] submittedArticles;\n    mapping (address => Article[]) authorToArticles;\n    mapping (address => bool) editorToVoted; \n\n    function findMostUpvotedArticle() private view returns (Article memory _article){\n        uint mostUpvotedArticleIndex = 0;\n        for(uint i=1; i < submittedArticles.length; i++) {\n            if (submittedArticles[i].upvotes > submittedArticles[mostUpvotedArticleIndex].upvotes) {\n                mostUpvotedArticleIndex = i;\n            }\n        }\n        return submittedArticles[mostUpvotedArticleIndex];\n    }\n\n    function pinArticleToFrontPage() public {\n        Article memory article = findMostUpvotedArticle();\n        frontpageArticles.push(article);\n    }\n\n    function initArticle(string memory _text) public {\n        Article memory article = Article(msg.sender, _text, 0);\n        authorToArticles[msg.sender].push(article);\n        submittedArticles.push(article);\n    }\n    \n    function emptyArticles(Article[] storage _articles) internal {\n        while(_articles.length > 0)\n            _articles.pop();\n    }\n\n    function upvoteArticles(uint[] calldata articleIndices) public {\n        for(uint i=0; i < articleIndices.length; i++) {\n            require(articleIndices[i] < submittedArticles.length, \"Article index does not exist\");\n            submittedArticles[articleIndices[i]].upvotes += 1;\n        }\n        editorToVoted[msg.sender] = true;\n    }\n\n    function getUpvotes(uint articleIndex) public view returns (uint _upvotes) {\n        require(articleIndex < submittedArticles.length, \"Article index does not exist\");\n        return submittedArticles[articleIndex].upvotes;\n    }\n\n    function getSubmittedArticles() public view returns (Article[] memory _submittedArticles){\n        return submittedArticles;\n    }\n\n    function getFrontpageArticles() public view returns (Article[] memory _frontpageArticles){\n        return frontpageArticles;\n    }\n\n    function getEditorVoted(address _editor) public view returns(bool _voted){\n        return editorToVoted[_editor];\n    } \n\n}",
  "sourcePath": "contracts/Editorial.sol",
  "type": "contract"
}