{
  "abi": [
    {
      "inputs": [
        {
          "internalType": "uint256",
          "name": "_frontpageSize",
          "type": "uint256"
        },
        {
          "internalType": "uint256",
          "name": "_interval",
          "type": "uint256"
        }
      ],
      "stateMutability": "nonpayable",
      "type": "constructor"
    },
    {
      "inputs": [
        {
          "components": [
            {
              "internalType": "address",
              "name": "bidder",
              "type": "address"
            },
            {
              "internalType": "uint256",
              "name": "amount",
              "type": "uint256"
            },
            {
              "internalType": "address",
              "name": "sponsor",
              "type": "address"
            }
          ],
          "internalType": "struct SponsorBid",
          "name": "_sponsorBid",
          "type": "tuple"
        }
      ],
      "name": "bidOnAdPlacement",
      "outputs": [],
      "stateMutability": "payable",
      "type": "function"
    },
    {
      "inputs": [
        {
          "internalType": "bytes",
          "name": "",
          "type": "bytes"
        }
      ],
      "name": "checkUpkeep",
      "outputs": [
        {
          "internalType": "bool",
          "name": "upkeepNeeded",
          "type": "bool"
        },
        {
          "internalType": "bytes",
          "name": "",
          "type": "bytes"
        }
      ],
      "stateMutability": "view",
      "type": "function"
    },
    {
      "inputs": [
        {
          "internalType": "uint256",
          "name": "amount",
          "type": "uint256"
        }
      ],
      "name": "deposit",
      "outputs": [],
      "stateMutability": "payable",
      "type": "function"
    },
    {
      "inputs": [
        {
          "internalType": "uint256",
          "name": "articleIndex",
          "type": "uint256"
        }
      ],
      "name": "getArticleVotes",
      "outputs": [
        {
          "internalType": "uint256",
          "name": "",
          "type": "uint256"
        }
      ],
      "stateMutability": "view",
      "type": "function"
    },
    {
      "inputs": [],
      "name": "getFrontpageArticles",
      "outputs": [
        {
          "components": [
            {
              "internalType": "address",
              "name": "author",
              "type": "address"
            },
            {
              "internalType": "string",
              "name": "text",
              "type": "string"
            },
            {
              "internalType": "address[]",
              "name": "voters",
              "type": "address[]"
            }
          ],
          "internalType": "struct Article[]",
          "name": "",
          "type": "tuple[]"
        }
      ],
      "stateMutability": "view",
      "type": "function"
    },
    {
      "inputs": [],
      "name": "getFrontpageSize",
      "outputs": [
        {
          "internalType": "uint256",
          "name": "",
          "type": "uint256"
        }
      ],
      "stateMutability": "view",
      "type": "function"
    },
    {
      "inputs": [],
      "name": "getSubmittedArticles",
      "outputs": [
        {
          "components": [
            {
              "internalType": "address",
              "name": "author",
              "type": "address"
            },
            {
              "internalType": "string",
              "name": "text",
              "type": "string"
            },
            {
              "internalType": "address[]",
              "name": "voters",
              "type": "address[]"
            }
          ],
          "internalType": "struct Article[]",
          "name": "",
          "type": "tuple[]"
        }
      ],
      "stateMutability": "view",
      "type": "function"
    },
    {
      "inputs": [],
      "name": "getTreasuryBalance",
      "outputs": [
        {
          "internalType": "uint256",
          "name": "",
          "type": "uint256"
        }
      ],
      "stateMutability": "view",
      "type": "function"
    },
    {
      "inputs": [
        {
          "internalType": "string",
          "name": "_text",
          "type": "string"
        }
      ],
      "name": "initArticle",
      "outputs": [],
      "stateMutability": "nonpayable",
      "type": "function"
    },
    {
      "inputs": [
        {
          "internalType": "bytes",
          "name": "",
          "type": "bytes"
        }
      ],
      "name": "performUpkeep",
      "outputs": [],
      "stateMutability": "nonpayable",
      "type": "function"
    },
    {
      "inputs": [
        {
          "components": [
            {
              "internalType": "string",
              "name": "imageHash",
              "type": "string"
            },
            {
              "internalType": "string",
              "name": "ipfsInfo",
              "type": "string"
            }
          ],
          "internalType": "struct Ad",
          "name": "_currentAd",
          "type": "tuple"
        }
      ],
      "name": "setCurrentAd",
      "outputs": [],
      "stateMutability": "nonpayable",
      "type": "function"
    },
    {
      "inputs": [
        {
          "internalType": "uint256",
          "name": "_frontpageSize",
          "type": "uint256"
        }
      ],
      "name": "setFrontpageSize",
      "outputs": [],
      "stateMutability": "nonpayable",
      "type": "function"
    },
    {
      "inputs": [
        {
          "internalType": "uint256",
          "name": "articleIndex",
          "type": "uint256"
        }
      ],
      "name": "voteForArticles",
      "outputs": [],
      "stateMutability": "nonpayable",
      "type": "function"
    },
    {
      "inputs": [
        {
          "internalType": "address",
          "name": "_withdrawer",
          "type": "address"
        }
      ],
      "name": "withdrawRewards",
      "outputs": [],
      "stateMutability": "nonpayable",
      "type": "function"
    }
  ],
  "bytecode": "60e060405260146080908152602860a081905260c0526200002590601290600362000097565b503480156200003357600080fd5b50604051620017b5380380620017b58339810160408190526200005691620000f6565b600e80546001600160a01b03191633908117909155600f92909255601155426010556000908152600660205260409020805460ff191660011790556200011b565b8260038101928215620000cd579160200282015b82811115620000cd578251829060ff16905591602001919060010190620000ab565b50620000db929150620000df565b5090565b5b80821115620000db5760008155600101620000e0565b600080604083850312156200010a57600080fd5b505080516020909101519092909150565b61168a806200012b6000396000f3fe6080604052600436106100dd5760003560e01c806360aaaf9f1161007f5780639b5655dc116100595780639b5655dc146102285780639ee3897c1461023b578063b6b55f251461025b578063f20484611461026e57600080fd5b806360aaaf9f146101c55780636e04ff0d146101e5578063806d78ed1461021357600080fd5b806342d86693116100bb57806342d86693146101425780634585e33b146101625780635603e67d146101825780635a8538a0146101b057600080fd5b80631ba9b1a2146100e25780631e1a0b981461010d5780632602ee891461012f575b600080fd5b3480156100ee57600080fd5b506100f761028e565b60405161010491906111c4565b60405180910390f35b34801561011957600080fd5b5061012d61012836600461132e565b6103f7565b005b61012d61013d3660046113d5565b610447565b34801561014e57600080fd5b5061012d61015d366004611402565b6105cd565b34801561016e57600080fd5b5061012d61017d366004611426565b61067e565b34801561018e57600080fd5b506101a261019d366004611498565b61077e565b604051908152602001610104565b3480156101bc57600080fd5b506100f76107ff565b3480156101d157600080fd5b5061012d6101e0366004611498565b61095f565b3480156101f157600080fd5b50610205610200366004611426565b610ad6565b6040516101049291906114b1565b34801561021f57600080fd5b50600f546101a2565b34801561023457600080fd5b50476101a2565b34801561024757600080fd5b5061012d6102563660046114d4565b610af5565b61012d610269366004611498565b610c42565b34801561027a57600080fd5b5061012d610289366004611498565b610c64565b60606001805480602002602001604051908101604052809291908181526020016000905b828210156103ee57600084815260209081902060408051606081019091526003850290910180546001600160a01b0316825260018101805492939192918401916102fb90611509565b80601f016020809104026020016040519081016040528092919081815260200182805461032790611509565b80156103745780601f1061034957610100808354040283529160200191610374565b820191906000526020600020905b81548152906001019060200180831161035757829003601f168201915b50505050508152602001600282018054806020026020016040519081016040528092919081815260200182805480156103d657602002820191906000526020600020905b81546001600160a01b031681526001909101906020018083116103b8575b505050505081525050815260200190600101906102b2565b50505050905090565b600d546001600160a01b0316331461040e57600080fd5b805180518291600b91610428918391602090910190610fd4565b5060208281015180516104419260018501920190610fd4565b50505050565b6009546020820135116104b05760405162461bcd60e51b815260206004820152602660248201527f426964206973206e6f7420686967686572207468616e207468652068696768656044820152651cdd08189a5960d21b60648201526084015b60405180910390fd5b806020013534146104d35760405162461bcd60e51b81526004016104a79061153e565b60408051606081018252600880546001600160a01b0390811683526009546020840152600a54169282019290925290829061050e82826115bb565b50506020810151471061058b576040805162461bcd60e51b81526020600482015260248101919091527f4572726f6e656f7573207472616e73616374696f6e3a20446f206e6f7420686160448201527f76652074686520726571756972656420616d6f756e7420746f20726566756e6460648201526084016104a7565b805160208201516040516001600160a01b039092169181156108fc0291906000818181858888f193505050501580156105c8573d6000803e3d6000fd5b505050565b6001600160a01b0381166000908152600360205260409020546106325760405162461bcd60e51b815260206004820152601c60248201527f596f752068617665206e6f7468696e6720746f2077697468647261770000000060448201526064016104a7565b6001600160a01b03811660009081526003602052604080822080549083905590519091339183156108fc0291849190818181858888f193505050501580156105c8573d6000803e3d6000fd5b60115460105461068e904261160c565b116106f25760405162461bcd60e51b815260206004820152602e60248201527f4974206973206e6f74207965742074696d6520666f722074686520747265617360448201526d1d5c9e481d1bc81899481c185a5960921b60648201526084016104a7565b6000471161074c5760405162461bcd60e51b815260206004820152602160248201527f5468657265206973206e6f206d6f6e657920696e2074686520747265617375726044820152607960f81b60648201526084016104a7565b610754610ccd565b505042601055600a54600d80546001600160a01b0319166001600160a01b03909216919091179055565b60015460009082106107d25760405162461bcd60e51b815260206004820152601c60248201527f41727469636c6520696e64657820646f6573206e6f742065786973740000000060448201526064016104a7565b600182815481106107e5576107e5611623565b600091825260209091206002600390920201015492915050565b60606000805480602002602001604051908101604052809291908181526020016000905b828210156103ee57600084815260209081902060408051606081019091526003850290910180546001600160a01b03168252600181018054929391929184019161086c90611509565b80601f016020809104026020016040519081016040528092919081815260200182805461089890611509565b80156108e55780601f106108ba576101008083540402835291602001916108e5565b820191906000526020600020905b8154815290600101906020018083116108c857829003601f168201915b505050505081526020016002820180548060200260200160405190810160405280929190818152602001828054801561094757602002820191906000526020600020905b81546001600160a01b03168152600190910190602001808311610929575b50505050508152505081526020019060010190610823565b3360009081526006602052604090205460ff1661097b57600080fd5b3360009081526005602052604090205460ff161515600114156109e05760405162461bcd60e51b815260206004820152601760248201527f596f75206861766520616c726561647920766f7465642e00000000000000000060448201526064016104a7565b336001600160a01b0316600182815481106109fd576109fd611623565b60009182526020909120600390910201546001600160a01b03161415610a705760405162461bcd60e51b815260206004820152602260248201527f596f752063616e277420766f7465206f6e20796f7572206f776e2061727469636044820152616c6560f01b60648201526084016104a7565b60018181548110610a8357610a83611623565b600091825260208083206002600390930201919091018054600181810183559184528284200180546001600160a01b03191633908117909155835260059091526040909120805460ff1916909117905550565b6000606060115460105442610aeb919061160c565b1191509250929050565b604080516060808201835233808352602080840186815284860184905260009283526007825294822080546001808201835591845292829020855160039094020180546001600160a01b0319166001600160a01b039094169390931783559451805193958594610b6c939185019290910190610fd4565b5060408201518051610b88916002840191602090910190611058565b5050600180548082018255600091909152825160039091027fb10e2d527612073b26eecdfd717e6a320cf44b4afac2b0732d9fcbe2b7fa0cf6810180546001600160a01b039093166001600160a01b03199093169290921782556020808501518051869550610c1e937fb10e2d527612073b26eecdfd717e6a320cf44b4afac2b0732d9fcbe2b7fa0cf701929190910190610fd4565b5060408201518051610c3a916002840191602090910190611058565b505050505050565b803414610c615760405162461bcd60e51b81526004016104a79061153e565b50565b600e546001600160a01b03163314610c7b57600080fd5b80610cc85760405162461bcd60e51b815260206004820152601860248201527f46726f6e74706167652063616e277420626520656d707479000000000000000060448201526064016104a7565b600f55565b60005b600f54811015610f1c57600080610ce5610f2b565b604080516060810190915282546001600160a01b03168152600183018054929450909291602084019190610d1890611509565b80601f0160208091040260200160405190810160405280929190818152602001828054610d4490611509565b8015610d915780601f10610d6657610100808354040283529160200191610d91565b820191906000526020600020905b815481529060010190602001808311610d7457829003601f168201915b5050505050815260200160028201805480602002602001604051908101604052809291908181526020018280548015610df357602002820191906000526020600020905b81546001600160a01b03168152600190910190602001808311610dd5575b5050509190925250506000805460018101825590805282517f290decd9548b62a8d60345a988386fc84ba6bc95484008f6362f93160ef3e563600390920291820180546001600160a01b0319166001600160a01b0390921691909117815560208085015180519597508795929450610e90937f290decd9548b62a8d60345a988386fc84ba6bc95484008f6362f93160ef3e5640192910190610fd4565b5060408201518051610eac916002840191602090910190611058565b505082516001600160a01b03166000908152600660205260409020805460ff19166001908117909155805490915082908110610eea57610eea611623565b90600052602060002090600302016002016000610f0791906110ad565b50508080610f1490611639565b915050610cd0565b50610f29600160006110cb565b565b6000808060015b600154811015610fa85760018281548110610f4f57610f4f611623565b90600052602060002090600302016002018054905060018281548110610f7757610f77611623565b9060005260206000209060030201600201805490501115610f96578091505b80610fa081611639565b915050610f32565b5060018181548110610fbc57610fbc611623565b90600052602060002090600302018192509250509091565b828054610fe090611509565b90600052602060002090601f0160209004810192826110025760008555611048565b82601f1061101b57805160ff1916838001178555611048565b82800160010185558215611048579182015b8281111561104857825182559160200191906001019061102d565b506110549291506110ec565b5090565b828054828255906000526020600020908101928215611048579160200282015b8281111561104857825182546001600160a01b0319166001600160a01b03909116178255602090920191600190910190611078565b5080546000825590600052602060002090810190610c6191906110ec565b5080546000825560030290600052602060002090810190610c619190611101565b5b8082111561105457600081556001016110ed565b808211156110545780546001600160a01b03191681556000611126600183018261113d565b6111346002830160006110ad565b50600301611101565b50805461114990611509565b6000825580601f10611159575050565b601f016020900490600052602060002090810190610c6191906110ec565b6000815180845260005b8181101561119d57602081850181015186830182015201611181565b818111156111af576000602083870101525b50601f01601f19169290920160200192915050565b60006020808301818452808551808352604092508286019150828160051b8701018488016000805b8481101561127c57898403603f19018652825180516001600160a01b0390811686528982015160608b8801819052919061122883890182611177565b938b0151888503898d01528051808652908d01948794508d0191505b8084101561126657845183168252938c019360019390930192908c0190611244565b50988b01989650505092880192506001016111ec565b50919998505050505050505050565b634e487b7160e01b600052604160045260246000fd5b600082601f8301126112b257600080fd5b813567ffffffffffffffff808211156112cd576112cd61128b565b604051601f8301601f19908116603f011681019082821181831017156112f5576112f561128b565b8160405283815286602085880101111561130e57600080fd5b836020870160208301376000602085830101528094505050505092915050565b60006020828403121561134057600080fd5b813567ffffffffffffffff8082111561135857600080fd5b908301906040828603121561136c57600080fd5b6040516040810181811083821117156113875761138761128b565b60405282358281111561139957600080fd5b6113a5878286016112a1565b8252506020830135828111156113ba57600080fd5b6113c6878286016112a1565b60208301525095945050505050565b6000606082840312156113e757600080fd5b50919050565b6001600160a01b0381168114610c6157600080fd5b60006020828403121561141457600080fd5b813561141f816113ed565b9392505050565b6000806020838503121561143957600080fd5b823567ffffffffffffffff8082111561145157600080fd5b818501915085601f83011261146557600080fd5b81358181111561147457600080fd5b86602082850101111561148657600080fd5b60209290920196919550909350505050565b6000602082840312156114aa57600080fd5b5035919050565b82151581526040602082015260006114cc6040830184611177565b949350505050565b6000602082840312156114e657600080fd5b813567ffffffffffffffff8111156114fd57600080fd5b6114cc848285016112a1565b600181811c9082168061151d57607f821691505b602082108114156113e757634e487b7160e01b600052602260045260246000fd5b60208082526038908201527f4572726f6e656f7573207472616e73616374696f6e3a20616d6f756e7420747260408201527f616e73666572726564206973206e6f7420636f72726563740000000000000000606082015260800190565b80546001600160a01b0319166001600160a01b0392909216919091179055565b81356115c6816113ed565b6115d0818361159b565b506020820135600182015560408201356115e9816113ed565b6105c8816002840161159b565b634e487b7160e01b600052601160045260246000fd5b60008282101561161e5761161e6115f6565b500390565b634e487b7160e01b600052603260045260246000fd5b600060001982141561164d5761164d6115f6565b506001019056fea26469706673582212204adc73112a886769dff4442a005dd42a486b710e4c2772d1606f55f92ceea27464736f6c634300080a0033",
  "bytecodeSha1": "f80d8cf7e1f019d9d4555613e836020ebeaff422",
  "compiler": {
    "evm_version": "istanbul",
    "optimizer": {
      "enabled": true,
      "runs": 200
    },
    "version": "0.8.10+commit.fc410830"
  },
  "contractName": "Journal",
  "language": "Solidity",
  "natspec": {
    "kind": "dev",
    "methods": {},
    "version": 1
  },
  "opcodes": "PUSH1 0x80 PUSH1 0x40 MSTORE PUSH1 0x4 CALLDATASIZE LT PUSH2 0xDD JUMPI PUSH1 0x0 CALLDATALOAD PUSH1 0xE0 SHR DUP1 PUSH4 0x60AAAF9F GT PUSH2 0x7F JUMPI DUP1 PUSH4 0x9B5655DC GT PUSH2 0x59 JUMPI DUP1 PUSH4 0x9B5655DC EQ PUSH2 0x228 JUMPI DUP1 PUSH4 0x9EE3897C EQ PUSH2 0x23B JUMPI DUP1 PUSH4 0xB6B55F25 EQ PUSH2 0x25B JUMPI DUP1 PUSH4 0xF2048461 EQ PUSH2 0x26E JUMPI PUSH1 0x0 DUP1 REVERT JUMPDEST DUP1 PUSH4 0x60AAAF9F EQ PUSH2 0x1C5 JUMPI DUP1 PUSH4 0x6E04FF0D EQ PUSH2 0x1E5 JUMPI DUP1 PUSH4 0x806D78ED EQ PUSH2 0x213 JUMPI PUSH1 0x0 DUP1 REVERT JUMPDEST DUP1 PUSH4 0x42D86693 GT PUSH2 0xBB JUMPI DUP1 PUSH4 0x42D86693 EQ PUSH2 0x142 JUMPI DUP1 PUSH4 0x4585E33B EQ PUSH2 0x162 JUMPI DUP1 PUSH4 0x5603E67D EQ PUSH2 0x182 JUMPI DUP1 PUSH4 0x5A8538A0 EQ PUSH2 0x1B0 JUMPI PUSH1 0x0 DUP1 REVERT JUMPDEST DUP1 PUSH4 0x1BA9B1A2 EQ PUSH2 0xE2 JUMPI DUP1 PUSH4 0x1E1A0B98 EQ PUSH2 0x10D JUMPI DUP1 PUSH4 0x2602EE89 EQ PUSH2 0x12F JUMPI JUMPDEST PUSH1 0x0 DUP1 REVERT JUMPDEST CALLVALUE DUP1 ISZERO PUSH2 0xEE JUMPI PUSH1 0x0 DUP1 REVERT JUMPDEST POP PUSH2 0xF7 PUSH2 0x28E JUMP JUMPDEST PUSH1 0x40 MLOAD PUSH2 0x104 SWAP2 SWAP1 PUSH2 0x11C4 JUMP JUMPDEST PUSH1 0x40 MLOAD DUP1 SWAP2 SUB SWAP1 RETURN JUMPDEST CALLVALUE DUP1 ISZERO PUSH2 0x119 JUMPI PUSH1 0x0 DUP1 REVERT JUMPDEST POP PUSH2 0x12D PUSH2 0x128 CALLDATASIZE PUSH1 0x4 PUSH2 0x132E JUMP JUMPDEST PUSH2 0x3F7 JUMP JUMPDEST STOP JUMPDEST PUSH2 0x12D PUSH2 0x13D CALLDATASIZE PUSH1 0x4 PUSH2 0x13D5 JUMP JUMPDEST PUSH2 0x447 JUMP JUMPDEST CALLVALUE DUP1 ISZERO PUSH2 0x14E JUMPI PUSH1 0x0 DUP1 REVERT JUMPDEST POP PUSH2 0x12D PUSH2 0x15D CALLDATASIZE PUSH1 0x4 PUSH2 0x1402 JUMP JUMPDEST PUSH2 0x5CD JUMP JUMPDEST CALLVALUE DUP1 ISZERO PUSH2 0x16E JUMPI PUSH1 0x0 DUP1 REVERT JUMPDEST POP PUSH2 0x12D PUSH2 0x17D CALLDATASIZE PUSH1 0x4 PUSH2 0x1426 JUMP JUMPDEST PUSH2 0x67E JUMP JUMPDEST CALLVALUE DUP1 ISZERO PUSH2 0x18E JUMPI PUSH1 0x0 DUP1 REVERT JUMPDEST POP PUSH2 0x1A2 PUSH2 0x19D CALLDATASIZE PUSH1 0x4 PUSH2 0x1498 JUMP JUMPDEST PUSH2 0x77E JUMP JUMPDEST PUSH1 0x40 MLOAD SWAP1 DUP2 MSTORE PUSH1 0x20 ADD PUSH2 0x104 JUMP JUMPDEST CALLVALUE DUP1 ISZERO PUSH2 0x1BC JUMPI PUSH1 0x0 DUP1 REVERT JUMPDEST POP PUSH2 0xF7 PUSH2 0x7FF JUMP JUMPDEST CALLVALUE DUP1 ISZERO PUSH2 0x1D1 JUMPI PUSH1 0x0 DUP1 REVERT JUMPDEST POP PUSH2 0x12D PUSH2 0x1E0 CALLDATASIZE PUSH1 0x4 PUSH2 0x1498 JUMP JUMPDEST PUSH2 0x95F JUMP JUMPDEST CALLVALUE DUP1 ISZERO PUSH2 0x1F1 JUMPI PUSH1 0x0 DUP1 REVERT JUMPDEST POP PUSH2 0x205 PUSH2 0x200 CALLDATASIZE PUSH1 0x4 PUSH2 0x1426 JUMP JUMPDEST PUSH2 0xAD6 JUMP JUMPDEST PUSH1 0x40 MLOAD PUSH2 0x104 SWAP3 SWAP2 SWAP1 PUSH2 0x14B1 JUMP JUMPDEST CALLVALUE DUP1 ISZERO PUSH2 0x21F JUMPI PUSH1 0x0 DUP1 REVERT JUMPDEST POP PUSH1 0xF SLOAD PUSH2 0x1A2 JUMP JUMPDEST CALLVALUE DUP1 ISZERO PUSH2 0x234 JUMPI PUSH1 0x0 DUP1 REVERT JUMPDEST POP SELFBALANCE PUSH2 0x1A2 JUMP JUMPDEST CALLVALUE DUP1 ISZERO PUSH2 0x247 JUMPI PUSH1 0x0 DUP1 REVERT JUMPDEST POP PUSH2 0x12D PUSH2 0x256 CALLDATASIZE PUSH1 0x4 PUSH2 0x14D4 JUMP JUMPDEST PUSH2 0xAF5 JUMP JUMPDEST PUSH2 0x12D PUSH2 0x269 CALLDATASIZE PUSH1 0x4 PUSH2 0x1498 JUMP JUMPDEST PUSH2 0xC42 JUMP JUMPDEST CALLVALUE DUP1 ISZERO PUSH2 0x27A JUMPI PUSH1 0x0 DUP1 REVERT JUMPDEST POP PUSH2 0x12D PUSH2 0x289 CALLDATASIZE PUSH1 0x4 PUSH2 0x1498 JUMP JUMPDEST PUSH2 0xC64 JUMP JUMPDEST PUSH1 0x60 PUSH1 0x1 DUP1 SLOAD DUP1 PUSH1 0x20 MUL PUSH1 0x20 ADD PUSH1 0x40 MLOAD SWAP1 DUP2 ADD PUSH1 0x40 MSTORE DUP1 SWAP3 SWAP2 SWAP1 DUP2 DUP2 MSTORE PUSH1 0x20 ADD PUSH1 0x0 SWAP1 JUMPDEST DUP3 DUP3 LT ISZERO PUSH2 0x3EE JUMPI PUSH1 0x0 DUP5 DUP2 MSTORE PUSH1 0x20 SWAP1 DUP2 SWAP1 KECCAK256 PUSH1 0x40 DUP1 MLOAD PUSH1 0x60 DUP2 ADD SWAP1 SWAP2 MSTORE PUSH1 0x3 DUP6 MUL SWAP1 SWAP2 ADD DUP1 SLOAD PUSH1 0x1 PUSH1 0x1 PUSH1 0xA0 SHL SUB AND DUP3 MSTORE PUSH1 0x1 DUP2 ADD DUP1 SLOAD SWAP3 SWAP4 SWAP2 SWAP3 SWAP2 DUP5 ADD SWAP2 PUSH2 0x2FB SWAP1 PUSH2 0x1509 JUMP JUMPDEST DUP1 PUSH1 0x1F ADD PUSH1 0x20 DUP1 SWAP2 DIV MUL PUSH1 0x20 ADD PUSH1 0x40 MLOAD SWAP1 DUP2 ADD PUSH1 0x40 MSTORE DUP1 SWAP3 SWAP2 SWAP1 DUP2 DUP2 MSTORE PUSH1 0x20 ADD DUP3 DUP1 SLOAD PUSH2 0x327 SWAP1 PUSH2 0x1509 JUMP JUMPDEST DUP1 ISZERO PUSH2 0x374 JUMPI DUP1 PUSH1 0x1F LT PUSH2 0x349 JUMPI PUSH2 0x100 DUP1 DUP4 SLOAD DIV MUL DUP4 MSTORE SWAP2 PUSH1 0x20 ADD SWAP2 PUSH2 0x374 JUMP JUMPDEST DUP3 ADD SWAP2 SWAP1 PUSH1 0x0 MSTORE PUSH1 0x20 PUSH1 0x0 KECCAK256 SWAP1 JUMPDEST DUP2 SLOAD DUP2 MSTORE SWAP1 PUSH1 0x1 ADD SWAP1 PUSH1 0x20 ADD DUP1 DUP4 GT PUSH2 0x357 JUMPI DUP3 SWAP1 SUB PUSH1 0x1F AND DUP3 ADD SWAP2 JUMPDEST POP POP POP POP POP DUP2 MSTORE PUSH1 0x20 ADD PUSH1 0x2 DUP3 ADD DUP1 SLOAD DUP1 PUSH1 0x20 MUL PUSH1 0x20 ADD PUSH1 0x40 MLOAD SWAP1 DUP2 ADD PUSH1 0x40 MSTORE DUP1 SWAP3 SWAP2 SWAP1 DUP2 DUP2 MSTORE PUSH1 0x20 ADD DUP3 DUP1 SLOAD DUP1 ISZERO PUSH2 0x3D6 JUMPI PUSH1 0x20 MUL DUP3 ADD SWAP2 SWAP1 PUSH1 0x0 MSTORE PUSH1 0x20 PUSH1 0x0 KECCAK256 SWAP1 JUMPDEST DUP2 SLOAD PUSH1 0x1 PUSH1 0x1 PUSH1 0xA0 SHL SUB AND DUP2 MSTORE PUSH1 0x1 SWAP1 SWAP2 ADD SWAP1 PUSH1 0x20 ADD DUP1 DUP4 GT PUSH2 0x3B8 JUMPI JUMPDEST POP POP POP POP POP DUP2 MSTORE POP POP DUP2 MSTORE PUSH1 0x20 ADD SWAP1 PUSH1 0x1 ADD SWAP1 PUSH2 0x2B2 JUMP JUMPDEST POP POP POP POP SWAP1 POP SWAP1 JUMP JUMPDEST PUSH1 0xD SLOAD PUSH1 0x1 PUSH1 0x1 PUSH1 0xA0 SHL SUB AND CALLER EQ PUSH2 0x40E JUMPI PUSH1 0x0 DUP1 REVERT JUMPDEST DUP1 MLOAD DUP1 MLOAD DUP3 SWAP2 PUSH1 0xB SWAP2 PUSH2 0x428 SWAP2 DUP4 SWAP2 PUSH1 0x20 SWAP1 SWAP2 ADD SWAP1 PUSH2 0xFD4 JUMP JUMPDEST POP PUSH1 0x20 DUP3 DUP2 ADD MLOAD DUP1 MLOAD PUSH2 0x441 SWAP3 PUSH1 0x1 DUP6 ADD SWAP3 ADD SWAP1 PUSH2 0xFD4 JUMP JUMPDEST POP POP POP POP JUMP JUMPDEST PUSH1 0x9 SLOAD PUSH1 0x20 DUP3 ADD CALLDATALOAD GT PUSH2 0x4B0 JUMPI PUSH1 0x40 MLOAD PUSH3 0x461BCD PUSH1 0xE5 SHL DUP2 MSTORE PUSH1 0x20 PUSH1 0x4 DUP3 ADD MSTORE PUSH1 0x26 PUSH1 0x24 DUP3 ADD MSTORE PUSH32 0x426964206973206E6F7420686967686572207468616E20746865206869676865 PUSH1 0x44 DUP3 ADD MSTORE PUSH6 0x1CDD08189A59 PUSH1 0xD2 SHL PUSH1 0x64 DUP3 ADD MSTORE PUSH1 0x84 ADD JUMPDEST PUSH1 0x40 MLOAD DUP1 SWAP2 SUB SWAP1 REVERT JUMPDEST DUP1 PUSH1 0x20 ADD CALLDATALOAD CALLVALUE EQ PUSH2 0x4D3 JUMPI PUSH1 0x40 MLOAD PUSH3 0x461BCD PUSH1 0xE5 SHL DUP2 MSTORE PUSH1 0x4 ADD PUSH2 0x4A7 SWAP1 PUSH2 0x153E JUMP JUMPDEST PUSH1 0x40 DUP1 MLOAD PUSH1 0x60 DUP2 ADD DUP3 MSTORE PUSH1 0x8 DUP1 SLOAD PUSH1 0x1 PUSH1 0x1 PUSH1 0xA0 SHL SUB SWAP1 DUP2 AND DUP4 MSTORE PUSH1 0x9 SLOAD PUSH1 0x20 DUP5 ADD MSTORE PUSH1 0xA SLOAD AND SWAP3 DUP3 ADD SWAP3 SWAP1 SWAP3 MSTORE SWAP1 DUP3 SWAP1 PUSH2 0x50E DUP3 DUP3 PUSH2 0x15BB JUMP JUMPDEST POP POP PUSH1 0x20 DUP2 ADD MLOAD SELFBALANCE LT PUSH2 0x58B JUMPI PUSH1 0x40 DUP1 MLOAD PUSH3 0x461BCD PUSH1 0xE5 SHL DUP2 MSTORE PUSH1 0x20 PUSH1 0x4 DUP3 ADD MSTORE PUSH1 0x24 DUP2 ADD SWAP2 SWAP1 SWAP2 MSTORE PUSH32 0x4572726F6E656F7573207472616E73616374696F6E3A20446F206E6F74206861 PUSH1 0x44 DUP3 ADD MSTORE PUSH32 0x76652074686520726571756972656420616D6F756E7420746F20726566756E64 PUSH1 0x64 DUP3 ADD MSTORE PUSH1 0x84 ADD PUSH2 0x4A7 JUMP JUMPDEST DUP1 MLOAD PUSH1 0x20 DUP3 ADD MLOAD PUSH1 0x40 MLOAD PUSH1 0x1 PUSH1 0x1 PUSH1 0xA0 SHL SUB SWAP1 SWAP3 AND SWAP2 DUP2 ISZERO PUSH2 0x8FC MUL SWAP2 SWAP1 PUSH1 0x0 DUP2 DUP2 DUP2 DUP6 DUP9 DUP9 CALL SWAP4 POP POP POP POP ISZERO DUP1 ISZERO PUSH2 0x5C8 JUMPI RETURNDATASIZE PUSH1 0x0 DUP1 RETURNDATACOPY RETURNDATASIZE PUSH1 0x0 REVERT JUMPDEST POP POP POP JUMP JUMPDEST PUSH1 0x1 PUSH1 0x1 PUSH1 0xA0 SHL SUB DUP2 AND PUSH1 0x0 SWAP1 DUP2 MSTORE PUSH1 0x3 PUSH1 0x20 MSTORE PUSH1 0x40 SWAP1 KECCAK256 SLOAD PUSH2 0x632 JUMPI PUSH1 0x40 MLOAD PUSH3 0x461BCD PUSH1 0xE5 SHL DUP2 MSTORE PUSH1 0x20 PUSH1 0x4 DUP3 ADD MSTORE PUSH1 0x1C PUSH1 0x24 DUP3 ADD MSTORE PUSH32 0x596F752068617665206E6F7468696E6720746F20776974686472617700000000 PUSH1 0x44 DUP3 ADD MSTORE PUSH1 0x64 ADD PUSH2 0x4A7 JUMP JUMPDEST PUSH1 0x1 PUSH1 0x1 PUSH1 0xA0 SHL SUB DUP2 AND PUSH1 0x0 SWAP1 DUP2 MSTORE PUSH1 0x3 PUSH1 0x20 MSTORE PUSH1 0x40 DUP1 DUP3 KECCAK256 DUP1 SLOAD SWAP1 DUP4 SWAP1 SSTORE SWAP1 MLOAD SWAP1 SWAP2 CALLER SWAP2 DUP4 ISZERO PUSH2 0x8FC MUL SWAP2 DUP5 SWAP2 SWAP1 DUP2 DUP2 DUP2 DUP6 DUP9 DUP9 CALL SWAP4 POP POP POP POP ISZERO DUP1 ISZERO PUSH2 0x5C8 JUMPI RETURNDATASIZE PUSH1 0x0 DUP1 RETURNDATACOPY RETURNDATASIZE PUSH1 0x0 REVERT JUMPDEST PUSH1 0x11 SLOAD PUSH1 0x10 SLOAD PUSH2 0x68E SWAP1 TIMESTAMP PUSH2 0x160C JUMP JUMPDEST GT PUSH2 0x6F2 JUMPI PUSH1 0x40 MLOAD PUSH3 0x461BCD PUSH1 0xE5 SHL DUP2 MSTORE PUSH1 0x20 PUSH1 0x4 DUP3 ADD MSTORE PUSH1 0x2E PUSH1 0x24 DUP3 ADD MSTORE PUSH32 0x4974206973206E6F74207965742074696D6520666F7220746865207472656173 PUSH1 0x44 DUP3 ADD MSTORE PUSH14 0x1D5C9E481D1BC81899481C185A59 PUSH1 0x92 SHL PUSH1 0x64 DUP3 ADD MSTORE PUSH1 0x84 ADD PUSH2 0x4A7 JUMP JUMPDEST PUSH1 0x0 SELFBALANCE GT PUSH2 0x74C JUMPI PUSH1 0x40 MLOAD PUSH3 0x461BCD PUSH1 0xE5 SHL DUP2 MSTORE PUSH1 0x20 PUSH1 0x4 DUP3 ADD MSTORE PUSH1 0x21 PUSH1 0x24 DUP3 ADD MSTORE PUSH32 0x5468657265206973206E6F206D6F6E657920696E207468652074726561737572 PUSH1 0x44 DUP3 ADD MSTORE PUSH1 0x79 PUSH1 0xF8 SHL PUSH1 0x64 DUP3 ADD MSTORE PUSH1 0x84 ADD PUSH2 0x4A7 JUMP JUMPDEST PUSH2 0x754 PUSH2 0xCCD JUMP JUMPDEST POP POP TIMESTAMP PUSH1 0x10 SSTORE PUSH1 0xA SLOAD PUSH1 0xD DUP1 SLOAD PUSH1 0x1 PUSH1 0x1 PUSH1 0xA0 SHL SUB NOT AND PUSH1 0x1 PUSH1 0x1 PUSH1 0xA0 SHL SUB SWAP1 SWAP3 AND SWAP2 SWAP1 SWAP2 OR SWAP1 SSTORE JUMP JUMPDEST PUSH1 0x1 SLOAD PUSH1 0x0 SWAP1 DUP3 LT PUSH2 0x7D2 JUMPI PUSH1 0x40 MLOAD PUSH3 0x461BCD PUSH1 0xE5 SHL DUP2 MSTORE PUSH1 0x20 PUSH1 0x4 DUP3 ADD MSTORE PUSH1 0x1C PUSH1 0x24 DUP3 ADD MSTORE PUSH32 0x41727469636C6520696E64657820646F6573206E6F7420657869737400000000 PUSH1 0x44 DUP3 ADD MSTORE PUSH1 0x64 ADD PUSH2 0x4A7 JUMP JUMPDEST PUSH1 0x1 DUP3 DUP2 SLOAD DUP2 LT PUSH2 0x7E5 JUMPI PUSH2 0x7E5 PUSH2 0x1623 JUMP JUMPDEST PUSH1 0x0 SWAP2 DUP3 MSTORE PUSH1 0x20 SWAP1 SWAP2 KECCAK256 PUSH1 0x2 PUSH1 0x3 SWAP1 SWAP3 MUL ADD ADD SLOAD SWAP3 SWAP2 POP POP JUMP JUMPDEST PUSH1 0x60 PUSH1 0x0 DUP1 SLOAD DUP1 PUSH1 0x20 MUL PUSH1 0x20 ADD PUSH1 0x40 MLOAD SWAP1 DUP2 ADD PUSH1 0x40 MSTORE DUP1 SWAP3 SWAP2 SWAP1 DUP2 DUP2 MSTORE PUSH1 0x20 ADD PUSH1 0x0 SWAP1 JUMPDEST DUP3 DUP3 LT ISZERO PUSH2 0x3EE JUMPI PUSH1 0x0 DUP5 DUP2 MSTORE PUSH1 0x20 SWAP1 DUP2 SWAP1 KECCAK256 PUSH1 0x40 DUP1 MLOAD PUSH1 0x60 DUP2 ADD SWAP1 SWAP2 MSTORE PUSH1 0x3 DUP6 MUL SWAP1 SWAP2 ADD DUP1 SLOAD PUSH1 0x1 PUSH1 0x1 PUSH1 0xA0 SHL SUB AND DUP3 MSTORE PUSH1 0x1 DUP2 ADD DUP1 SLOAD SWAP3 SWAP4 SWAP2 SWAP3 SWAP2 DUP5 ADD SWAP2 PUSH2 0x86C SWAP1 PUSH2 0x1509 JUMP JUMPDEST DUP1 PUSH1 0x1F ADD PUSH1 0x20 DUP1 SWAP2 DIV MUL PUSH1 0x20 ADD PUSH1 0x40 MLOAD SWAP1 DUP2 ADD PUSH1 0x40 MSTORE DUP1 SWAP3 SWAP2 SWAP1 DUP2 DUP2 MSTORE PUSH1 0x20 ADD DUP3 DUP1 SLOAD PUSH2 0x898 SWAP1 PUSH2 0x1509 JUMP JUMPDEST DUP1 ISZERO PUSH2 0x8E5 JUMPI DUP1 PUSH1 0x1F LT PUSH2 0x8BA JUMPI PUSH2 0x100 DUP1 DUP4 SLOAD DIV MUL DUP4 MSTORE SWAP2 PUSH1 0x20 ADD SWAP2 PUSH2 0x8E5 JUMP JUMPDEST DUP3 ADD SWAP2 SWAP1 PUSH1 0x0 MSTORE PUSH1 0x20 PUSH1 0x0 KECCAK256 SWAP1 JUMPDEST DUP2 SLOAD DUP2 MSTORE SWAP1 PUSH1 0x1 ADD SWAP1 PUSH1 0x20 ADD DUP1 DUP4 GT PUSH2 0x8C8 JUMPI DUP3 SWAP1 SUB PUSH1 0x1F AND DUP3 ADD SWAP2 JUMPDEST POP POP POP POP POP DUP2 MSTORE PUSH1 0x20 ADD PUSH1 0x2 DUP3 ADD DUP1 SLOAD DUP1 PUSH1 0x20 MUL PUSH1 0x20 ADD PUSH1 0x40 MLOAD SWAP1 DUP2 ADD PUSH1 0x40 MSTORE DUP1 SWAP3 SWAP2 SWAP1 DUP2 DUP2 MSTORE PUSH1 0x20 ADD DUP3 DUP1 SLOAD DUP1 ISZERO PUSH2 0x947 JUMPI PUSH1 0x20 MUL DUP3 ADD SWAP2 SWAP1 PUSH1 0x0 MSTORE PUSH1 0x20 PUSH1 0x0 KECCAK256 SWAP1 JUMPDEST DUP2 SLOAD PUSH1 0x1 PUSH1 0x1 PUSH1 0xA0 SHL SUB AND DUP2 MSTORE PUSH1 0x1 SWAP1 SWAP2 ADD SWAP1 PUSH1 0x20 ADD DUP1 DUP4 GT PUSH2 0x929 JUMPI JUMPDEST POP POP POP POP POP DUP2 MSTORE POP POP DUP2 MSTORE PUSH1 0x20 ADD SWAP1 PUSH1 0x1 ADD SWAP1 PUSH2 0x823 JUMP JUMPDEST CALLER PUSH1 0x0 SWAP1 DUP2 MSTORE PUSH1 0x6 PUSH1 0x20 MSTORE PUSH1 0x40 SWAP1 KECCAK256 SLOAD PUSH1 0xFF AND PUSH2 0x97B JUMPI PUSH1 0x0 DUP1 REVERT JUMPDEST CALLER PUSH1 0x0 SWAP1 DUP2 MSTORE PUSH1 0x5 PUSH1 0x20 MSTORE PUSH1 0x40 SWAP1 KECCAK256 SLOAD PUSH1 0xFF AND ISZERO ISZERO PUSH1 0x1 EQ ISZERO PUSH2 0x9E0 JUMPI PUSH1 0x40 MLOAD PUSH3 0x461BCD PUSH1 0xE5 SHL DUP2 MSTORE PUSH1 0x20 PUSH1 0x4 DUP3 ADD MSTORE PUSH1 0x17 PUSH1 0x24 DUP3 ADD MSTORE PUSH32 0x596F75206861766520616C726561647920766F7465642E000000000000000000 PUSH1 0x44 DUP3 ADD MSTORE PUSH1 0x64 ADD PUSH2 0x4A7 JUMP JUMPDEST CALLER PUSH1 0x1 PUSH1 0x1 PUSH1 0xA0 SHL SUB AND PUSH1 0x1 DUP3 DUP2 SLOAD DUP2 LT PUSH2 0x9FD JUMPI PUSH2 0x9FD PUSH2 0x1623 JUMP JUMPDEST PUSH1 0x0 SWAP2 DUP3 MSTORE PUSH1 0x20 SWAP1 SWAP2 KECCAK256 PUSH1 0x3 SWAP1 SWAP2 MUL ADD SLOAD PUSH1 0x1 PUSH1 0x1 PUSH1 0xA0 SHL SUB AND EQ ISZERO PUSH2 0xA70 JUMPI PUSH1 0x40 MLOAD PUSH3 0x461BCD PUSH1 0xE5 SHL DUP2 MSTORE PUSH1 0x20 PUSH1 0x4 DUP3 ADD MSTORE PUSH1 0x22 PUSH1 0x24 DUP3 ADD MSTORE PUSH32 0x596F752063616E277420766F7465206F6E20796F7572206F776E206172746963 PUSH1 0x44 DUP3 ADD MSTORE PUSH2 0x6C65 PUSH1 0xF0 SHL PUSH1 0x64 DUP3 ADD MSTORE PUSH1 0x84 ADD PUSH2 0x4A7 JUMP JUMPDEST PUSH1 0x1 DUP2 DUP2 SLOAD DUP2 LT PUSH2 0xA83 JUMPI PUSH2 0xA83 PUSH2 0x1623 JUMP JUMPDEST PUSH1 0x0 SWAP2 DUP3 MSTORE PUSH1 0x20 DUP1 DUP4 KECCAK256 PUSH1 0x2 PUSH1 0x3 SWAP1 SWAP4 MUL ADD SWAP2 SWAP1 SWAP2 ADD DUP1 SLOAD PUSH1 0x1 DUP2 DUP2 ADD DUP4 SSTORE SWAP2 DUP5 MSTORE DUP3 DUP5 KECCAK256 ADD DUP1 SLOAD PUSH1 0x1 PUSH1 0x1 PUSH1 0xA0 SHL SUB NOT AND CALLER SWAP1 DUP2 OR SWAP1 SWAP2 SSTORE DUP4 MSTORE PUSH1 0x5 SWAP1 SWAP2 MSTORE PUSH1 0x40 SWAP1 SWAP2 KECCAK256 DUP1 SLOAD PUSH1 0xFF NOT AND SWAP1 SWAP2 OR SWAP1 SSTORE POP JUMP JUMPDEST PUSH1 0x0 PUSH1 0x60 PUSH1 0x11 SLOAD PUSH1 0x10 SLOAD TIMESTAMP PUSH2 0xAEB SWAP2 SWAP1 PUSH2 0x160C JUMP JUMPDEST GT SWAP2 POP SWAP3 POP SWAP3 SWAP1 POP JUMP JUMPDEST PUSH1 0x40 DUP1 MLOAD PUSH1 0x60 DUP1 DUP3 ADD DUP4 MSTORE CALLER DUP1 DUP4 MSTORE PUSH1 0x20 DUP1 DUP5 ADD DUP7 DUP2 MSTORE DUP5 DUP7 ADD DUP5 SWAP1 MSTORE PUSH1 0x0 SWAP3 DUP4 MSTORE PUSH1 0x7 DUP3 MSTORE SWAP5 DUP3 KECCAK256 DUP1 SLOAD PUSH1 0x1 DUP1 DUP3 ADD DUP4 SSTORE SWAP2 DUP5 MSTORE SWAP3 DUP3 SWAP1 KECCAK256 DUP6 MLOAD PUSH1 0x3 SWAP1 SWAP5 MUL ADD DUP1 SLOAD PUSH1 0x1 PUSH1 0x1 PUSH1 0xA0 SHL SUB NOT AND PUSH1 0x1 PUSH1 0x1 PUSH1 0xA0 SHL SUB SWAP1 SWAP5 AND SWAP4 SWAP1 SWAP4 OR DUP4 SSTORE SWAP5 MLOAD DUP1 MLOAD SWAP4 SWAP6 DUP6 SWAP5 PUSH2 0xB6C SWAP4 SWAP2 DUP6 ADD SWAP3 SWAP1 SWAP2 ADD SWAP1 PUSH2 0xFD4 JUMP JUMPDEST POP PUSH1 0x40 DUP3 ADD MLOAD DUP1 MLOAD PUSH2 0xB88 SWAP2 PUSH1 0x2 DUP5 ADD SWAP2 PUSH1 0x20 SWAP1 SWAP2 ADD SWAP1 PUSH2 0x1058 JUMP JUMPDEST POP POP PUSH1 0x1 DUP1 SLOAD DUP1 DUP3 ADD DUP3 SSTORE PUSH1 0x0 SWAP2 SWAP1 SWAP2 MSTORE DUP3 MLOAD PUSH1 0x3 SWAP1 SWAP2 MUL PUSH32 0xB10E2D527612073B26EECDFD717E6A320CF44B4AFAC2B0732D9FCBE2B7FA0CF6 DUP2 ADD DUP1 SLOAD PUSH1 0x1 PUSH1 0x1 PUSH1 0xA0 SHL SUB SWAP1 SWAP4 AND PUSH1 0x1 PUSH1 0x1 PUSH1 0xA0 SHL SUB NOT SWAP1 SWAP4 AND SWAP3 SWAP1 SWAP3 OR DUP3 SSTORE PUSH1 0x20 DUP1 DUP6 ADD MLOAD DUP1 MLOAD DUP7 SWAP6 POP PUSH2 0xC1E SWAP4 PUSH32 0xB10E2D527612073B26EECDFD717E6A320CF44B4AFAC2B0732D9FCBE2B7FA0CF7 ADD SWAP3 SWAP2 SWAP1 SWAP2 ADD SWAP1 PUSH2 0xFD4 JUMP JUMPDEST POP PUSH1 0x40 DUP3 ADD MLOAD DUP1 MLOAD PUSH2 0xC3A SWAP2 PUSH1 0x2 DUP5 ADD SWAP2 PUSH1 0x20 SWAP1 SWAP2 ADD SWAP1 PUSH2 0x1058 JUMP JUMPDEST POP POP POP POP POP POP JUMP JUMPDEST DUP1 CALLVALUE EQ PUSH2 0xC61 JUMPI PUSH1 0x40 MLOAD PUSH3 0x461BCD PUSH1 0xE5 SHL DUP2 MSTORE PUSH1 0x4 ADD PUSH2 0x4A7 SWAP1 PUSH2 0x153E JUMP JUMPDEST POP JUMP JUMPDEST PUSH1 0xE SLOAD PUSH1 0x1 PUSH1 0x1 PUSH1 0xA0 SHL SUB AND CALLER EQ PUSH2 0xC7B JUMPI PUSH1 0x0 DUP1 REVERT JUMPDEST DUP1 PUSH2 0xCC8 JUMPI PUSH1 0x40 MLOAD PUSH3 0x461BCD PUSH1 0xE5 SHL DUP2 MSTORE PUSH1 0x20 PUSH1 0x4 DUP3 ADD MSTORE PUSH1 0x18 PUSH1 0x24 DUP3 ADD MSTORE PUSH32 0x46726F6E74706167652063616E277420626520656D7074790000000000000000 PUSH1 0x44 DUP3 ADD MSTORE PUSH1 0x64 ADD PUSH2 0x4A7 JUMP JUMPDEST PUSH1 0xF SSTORE JUMP JUMPDEST PUSH1 0x0 JUMPDEST PUSH1 0xF SLOAD DUP2 LT ISZERO PUSH2 0xF1C JUMPI PUSH1 0x0 DUP1 PUSH2 0xCE5 PUSH2 0xF2B JUMP JUMPDEST PUSH1 0x40 DUP1 MLOAD PUSH1 0x60 DUP2 ADD SWAP1 SWAP2 MSTORE DUP3 SLOAD PUSH1 0x1 PUSH1 0x1 PUSH1 0xA0 SHL SUB AND DUP2 MSTORE PUSH1 0x1 DUP4 ADD DUP1 SLOAD SWAP3 SWAP5 POP SWAP1 SWAP3 SWAP2 PUSH1 0x20 DUP5 ADD SWAP2 SWAP1 PUSH2 0xD18 SWAP1 PUSH2 0x1509 JUMP JUMPDEST DUP1 PUSH1 0x1F ADD PUSH1 0x20 DUP1 SWAP2 DIV MUL PUSH1 0x20 ADD PUSH1 0x40 MLOAD SWAP1 DUP2 ADD PUSH1 0x40 MSTORE DUP1 SWAP3 SWAP2 SWAP1 DUP2 DUP2 MSTORE PUSH1 0x20 ADD DUP3 DUP1 SLOAD PUSH2 0xD44 SWAP1 PUSH2 0x1509 JUMP JUMPDEST DUP1 ISZERO PUSH2 0xD91 JUMPI DUP1 PUSH1 0x1F LT PUSH2 0xD66 JUMPI PUSH2 0x100 DUP1 DUP4 SLOAD DIV MUL DUP4 MSTORE SWAP2 PUSH1 0x20 ADD SWAP2 PUSH2 0xD91 JUMP JUMPDEST DUP3 ADD SWAP2 SWAP1 PUSH1 0x0 MSTORE PUSH1 0x20 PUSH1 0x0 KECCAK256 SWAP1 JUMPDEST DUP2 SLOAD DUP2 MSTORE SWAP1 PUSH1 0x1 ADD SWAP1 PUSH1 0x20 ADD DUP1 DUP4 GT PUSH2 0xD74 JUMPI DUP3 SWAP1 SUB PUSH1 0x1F AND DUP3 ADD SWAP2 JUMPDEST POP POP POP POP POP DUP2 MSTORE PUSH1 0x20 ADD PUSH1 0x2 DUP3 ADD DUP1 SLOAD DUP1 PUSH1 0x20 MUL PUSH1 0x20 ADD PUSH1 0x40 MLOAD SWAP1 DUP2 ADD PUSH1 0x40 MSTORE DUP1 SWAP3 SWAP2 SWAP1 DUP2 DUP2 MSTORE PUSH1 0x20 ADD DUP3 DUP1 SLOAD DUP1 ISZERO PUSH2 0xDF3 JUMPI PUSH1 0x20 MUL DUP3 ADD SWAP2 SWAP1 PUSH1 0x0 MSTORE PUSH1 0x20 PUSH1 0x0 KECCAK256 SWAP1 JUMPDEST DUP2 SLOAD PUSH1 0x1 PUSH1 0x1 PUSH1 0xA0 SHL SUB AND DUP2 MSTORE PUSH1 0x1 SWAP1 SWAP2 ADD SWAP1 PUSH1 0x20 ADD DUP1 DUP4 GT PUSH2 0xDD5 JUMPI JUMPDEST POP POP POP SWAP2 SWAP1 SWAP3 MSTORE POP POP PUSH1 0x0 DUP1 SLOAD PUSH1 0x1 DUP2 ADD DUP3 SSTORE SWAP1 DUP1 MSTORE DUP3 MLOAD PUSH32 0x290DECD9548B62A8D60345A988386FC84BA6BC95484008F6362F93160EF3E563 PUSH1 0x3 SWAP1 SWAP3 MUL SWAP2 DUP3 ADD DUP1 SLOAD PUSH1 0x1 PUSH1 0x1 PUSH1 0xA0 SHL SUB NOT AND PUSH1 0x1 PUSH1 0x1 PUSH1 0xA0 SHL SUB SWAP1 SWAP3 AND SWAP2 SWAP1 SWAP2 OR DUP2 SSTORE PUSH1 0x20 DUP1 DUP6 ADD MLOAD DUP1 MLOAD SWAP6 SWAP8 POP DUP8 SWAP6 SWAP3 SWAP5 POP PUSH2 0xE90 SWAP4 PUSH32 0x290DECD9548B62A8D60345A988386FC84BA6BC95484008F6362F93160EF3E564 ADD SWAP3 SWAP2 ADD SWAP1 PUSH2 0xFD4 JUMP JUMPDEST POP PUSH1 0x40 DUP3 ADD MLOAD DUP1 MLOAD PUSH2 0xEAC SWAP2 PUSH1 0x2 DUP5 ADD SWAP2 PUSH1 0x20 SWAP1 SWAP2 ADD SWAP1 PUSH2 0x1058 JUMP JUMPDEST POP POP DUP3 MLOAD PUSH1 0x1 PUSH1 0x1 PUSH1 0xA0 SHL SUB AND PUSH1 0x0 SWAP1 DUP2 MSTORE PUSH1 0x6 PUSH1 0x20 MSTORE PUSH1 0x40 SWAP1 KECCAK256 DUP1 SLOAD PUSH1 0xFF NOT AND PUSH1 0x1 SWAP1 DUP2 OR SWAP1 SWAP2 SSTORE DUP1 SLOAD SWAP1 SWAP2 POP DUP3 SWAP1 DUP2 LT PUSH2 0xEEA JUMPI PUSH2 0xEEA PUSH2 0x1623 JUMP JUMPDEST SWAP1 PUSH1 0x0 MSTORE PUSH1 0x20 PUSH1 0x0 KECCAK256 SWAP1 PUSH1 0x3 MUL ADD PUSH1 0x2 ADD PUSH1 0x0 PUSH2 0xF07 SWAP2 SWAP1 PUSH2 0x10AD JUMP JUMPDEST POP POP DUP1 DUP1 PUSH2 0xF14 SWAP1 PUSH2 0x1639 JUMP JUMPDEST SWAP2 POP POP PUSH2 0xCD0 JUMP JUMPDEST POP PUSH2 0xF29 PUSH1 0x1 PUSH1 0x0 PUSH2 0x10CB JUMP JUMPDEST JUMP JUMPDEST PUSH1 0x0 DUP1 DUP1 PUSH1 0x1 JUMPDEST PUSH1 0x1 SLOAD DUP2 LT ISZERO PUSH2 0xFA8 JUMPI PUSH1 0x1 DUP3 DUP2 SLOAD DUP2 LT PUSH2 0xF4F JUMPI PUSH2 0xF4F PUSH2 0x1623 JUMP JUMPDEST SWAP1 PUSH1 0x0 MSTORE PUSH1 0x20 PUSH1 0x0 KECCAK256 SWAP1 PUSH1 0x3 MUL ADD PUSH1 0x2 ADD DUP1 SLOAD SWAP1 POP PUSH1 0x1 DUP3 DUP2 SLOAD DUP2 LT PUSH2 0xF77 JUMPI PUSH2 0xF77 PUSH2 0x1623 JUMP JUMPDEST SWAP1 PUSH1 0x0 MSTORE PUSH1 0x20 PUSH1 0x0 KECCAK256 SWAP1 PUSH1 0x3 MUL ADD PUSH1 0x2 ADD DUP1 SLOAD SWAP1 POP GT ISZERO PUSH2 0xF96 JUMPI DUP1 SWAP2 POP JUMPDEST DUP1 PUSH2 0xFA0 DUP2 PUSH2 0x1639 JUMP JUMPDEST SWAP2 POP POP PUSH2 0xF32 JUMP JUMPDEST POP PUSH1 0x1 DUP2 DUP2 SLOAD DUP2 LT PUSH2 0xFBC JUMPI PUSH2 0xFBC PUSH2 0x1623 JUMP JUMPDEST SWAP1 PUSH1 0x0 MSTORE PUSH1 0x20 PUSH1 0x0 KECCAK256 SWAP1 PUSH1 0x3 MUL ADD DUP2 SWAP3 POP SWAP3 POP POP SWAP1 SWAP2 JUMP JUMPDEST DUP3 DUP1 SLOAD PUSH2 0xFE0 SWAP1 PUSH2 0x1509 JUMP JUMPDEST SWAP1 PUSH1 0x0 MSTORE PUSH1 0x20 PUSH1 0x0 KECCAK256 SWAP1 PUSH1 0x1F ADD PUSH1 0x20 SWAP1 DIV DUP2 ADD SWAP3 DUP3 PUSH2 0x1002 JUMPI PUSH1 0x0 DUP6 SSTORE PUSH2 0x1048 JUMP JUMPDEST DUP3 PUSH1 0x1F LT PUSH2 0x101B JUMPI DUP1 MLOAD PUSH1 0xFF NOT AND DUP4 DUP1 ADD OR DUP6 SSTORE PUSH2 0x1048 JUMP JUMPDEST DUP3 DUP1 ADD PUSH1 0x1 ADD DUP6 SSTORE DUP3 ISZERO PUSH2 0x1048 JUMPI SWAP2 DUP3 ADD JUMPDEST DUP3 DUP2 GT ISZERO PUSH2 0x1048 JUMPI DUP3 MLOAD DUP3 SSTORE SWAP2 PUSH1 0x20 ADD SWAP2 SWAP1 PUSH1 0x1 ADD SWAP1 PUSH2 0x102D JUMP JUMPDEST POP PUSH2 0x1054 SWAP3 SWAP2 POP PUSH2 0x10EC JUMP JUMPDEST POP SWAP1 JUMP JUMPDEST DUP3 DUP1 SLOAD DUP3 DUP3 SSTORE SWAP1 PUSH1 0x0 MSTORE PUSH1 0x20 PUSH1 0x0 KECCAK256 SWAP1 DUP2 ADD SWAP3 DUP3 ISZERO PUSH2 0x1048 JUMPI SWAP2 PUSH1 0x20 MUL DUP3 ADD JUMPDEST DUP3 DUP2 GT ISZERO PUSH2 0x1048 JUMPI DUP3 MLOAD DUP3 SLOAD PUSH1 0x1 PUSH1 0x1 PUSH1 0xA0 SHL SUB NOT AND PUSH1 0x1 PUSH1 0x1 PUSH1 0xA0 SHL SUB SWAP1 SWAP2 AND OR DUP3 SSTORE PUSH1 0x20 SWAP1 SWAP3 ADD SWAP2 PUSH1 0x1 SWAP1 SWAP2 ADD SWAP1 PUSH2 0x1078 JUMP JUMPDEST POP DUP1 SLOAD PUSH1 0x0 DUP3 SSTORE SWAP1 PUSH1 0x0 MSTORE PUSH1 0x20 PUSH1 0x0 KECCAK256 SWAP1 DUP2 ADD SWAP1 PUSH2 0xC61 SWAP2 SWAP1 PUSH2 0x10EC JUMP JUMPDEST POP DUP1 SLOAD PUSH1 0x0 DUP3 SSTORE PUSH1 0x3 MUL SWAP1 PUSH1 0x0 MSTORE PUSH1 0x20 PUSH1 0x0 KECCAK256 SWAP1 DUP2 ADD SWAP1 PUSH2 0xC61 SWAP2 SWAP1 PUSH2 0x1101 JUMP JUMPDEST JUMPDEST DUP1 DUP3 GT ISZERO PUSH2 0x1054 JUMPI PUSH1 0x0 DUP2 SSTORE PUSH1 0x1 ADD PUSH2 0x10ED JUMP JUMPDEST DUP1 DUP3 GT ISZERO PUSH2 0x1054 JUMPI DUP1 SLOAD PUSH1 0x1 PUSH1 0x1 PUSH1 0xA0 SHL SUB NOT AND DUP2 SSTORE PUSH1 0x0 PUSH2 0x1126 PUSH1 0x1 DUP4 ADD DUP3 PUSH2 0x113D JUMP JUMPDEST PUSH2 0x1134 PUSH1 0x2 DUP4 ADD PUSH1 0x0 PUSH2 0x10AD JUMP JUMPDEST POP PUSH1 0x3 ADD PUSH2 0x1101 JUMP JUMPDEST POP DUP1 SLOAD PUSH2 0x1149 SWAP1 PUSH2 0x1509 JUMP JUMPDEST PUSH1 0x0 DUP3 SSTORE DUP1 PUSH1 0x1F LT PUSH2 0x1159 JUMPI POP POP JUMP JUMPDEST PUSH1 0x1F ADD PUSH1 0x20 SWAP1 DIV SWAP1 PUSH1 0x0 MSTORE PUSH1 0x20 PUSH1 0x0 KECCAK256 SWAP1 DUP2 ADD SWAP1 PUSH2 0xC61 SWAP2 SWAP1 PUSH2 0x10EC JUMP JUMPDEST PUSH1 0x0 DUP2 MLOAD DUP1 DUP5 MSTORE PUSH1 0x0 JUMPDEST DUP2 DUP2 LT ISZERO PUSH2 0x119D JUMPI PUSH1 0x20 DUP2 DUP6 ADD DUP2 ADD MLOAD DUP7 DUP4 ADD DUP3 ADD MSTORE ADD PUSH2 0x1181 JUMP JUMPDEST DUP2 DUP2 GT ISZERO PUSH2 0x11AF JUMPI PUSH1 0x0 PUSH1 0x20 DUP4 DUP8 ADD ADD MSTORE JUMPDEST POP PUSH1 0x1F ADD PUSH1 0x1F NOT AND SWAP3 SWAP1 SWAP3 ADD PUSH1 0x20 ADD SWAP3 SWAP2 POP POP JUMP JUMPDEST PUSH1 0x0 PUSH1 0x20 DUP1 DUP4 ADD DUP2 DUP5 MSTORE DUP1 DUP6 MLOAD DUP1 DUP4 MSTORE PUSH1 0x40 SWAP3 POP DUP3 DUP7 ADD SWAP2 POP DUP3 DUP2 PUSH1 0x5 SHL DUP8 ADD ADD DUP5 DUP9 ADD PUSH1 0x0 DUP1 JUMPDEST DUP5 DUP2 LT ISZERO PUSH2 0x127C JUMPI DUP10 DUP5 SUB PUSH1 0x3F NOT ADD DUP7 MSTORE DUP3 MLOAD DUP1 MLOAD PUSH1 0x1 PUSH1 0x1 PUSH1 0xA0 SHL SUB SWAP1 DUP2 AND DUP7 MSTORE DUP10 DUP3 ADD MLOAD PUSH1 0x60 DUP12 DUP9 ADD DUP2 SWAP1 MSTORE SWAP2 SWAP1 PUSH2 0x1228 DUP4 DUP10 ADD DUP3 PUSH2 0x1177 JUMP JUMPDEST SWAP4 DUP12 ADD MLOAD DUP9 DUP6 SUB DUP10 DUP14 ADD MSTORE DUP1 MLOAD DUP1 DUP7 MSTORE SWAP1 DUP14 ADD SWAP5 DUP8 SWAP5 POP DUP14 ADD SWAP2 POP JUMPDEST DUP1 DUP5 LT ISZERO PUSH2 0x1266 JUMPI DUP5 MLOAD DUP4 AND DUP3 MSTORE SWAP4 DUP13 ADD SWAP4 PUSH1 0x1 SWAP4 SWAP1 SWAP4 ADD SWAP3 SWAP1 DUP13 ADD SWAP1 PUSH2 0x1244 JUMP JUMPDEST POP SWAP9 DUP12 ADD SWAP9 SWAP7 POP POP POP SWAP3 DUP9 ADD SWAP3 POP PUSH1 0x1 ADD PUSH2 0x11EC JUMP JUMPDEST POP SWAP2 SWAP10 SWAP9 POP POP POP POP POP POP POP POP POP JUMP JUMPDEST PUSH4 0x4E487B71 PUSH1 0xE0 SHL PUSH1 0x0 MSTORE PUSH1 0x41 PUSH1 0x4 MSTORE PUSH1 0x24 PUSH1 0x0 REVERT JUMPDEST PUSH1 0x0 DUP3 PUSH1 0x1F DUP4 ADD SLT PUSH2 0x12B2 JUMPI PUSH1 0x0 DUP1 REVERT JUMPDEST DUP2 CALLDATALOAD PUSH8 0xFFFFFFFFFFFFFFFF DUP1 DUP3 GT ISZERO PUSH2 0x12CD JUMPI PUSH2 0x12CD PUSH2 0x128B JUMP JUMPDEST PUSH1 0x40 MLOAD PUSH1 0x1F DUP4 ADD PUSH1 0x1F NOT SWAP1 DUP2 AND PUSH1 0x3F ADD AND DUP2 ADD SWAP1 DUP3 DUP3 GT DUP2 DUP4 LT OR ISZERO PUSH2 0x12F5 JUMPI PUSH2 0x12F5 PUSH2 0x128B JUMP JUMPDEST DUP2 PUSH1 0x40 MSTORE DUP4 DUP2 MSTORE DUP7 PUSH1 0x20 DUP6 DUP9 ADD ADD GT ISZERO PUSH2 0x130E JUMPI PUSH1 0x0 DUP1 REVERT JUMPDEST DUP4 PUSH1 0x20 DUP8 ADD PUSH1 0x20 DUP4 ADD CALLDATACOPY PUSH1 0x0 PUSH1 0x20 DUP6 DUP4 ADD ADD MSTORE DUP1 SWAP5 POP POP POP POP POP SWAP3 SWAP2 POP POP JUMP JUMPDEST PUSH1 0x0 PUSH1 0x20 DUP3 DUP5 SUB SLT ISZERO PUSH2 0x1340 JUMPI PUSH1 0x0 DUP1 REVERT JUMPDEST DUP2 CALLDATALOAD PUSH8 0xFFFFFFFFFFFFFFFF DUP1 DUP3 GT ISZERO PUSH2 0x1358 JUMPI PUSH1 0x0 DUP1 REVERT JUMPDEST SWAP1 DUP4 ADD SWAP1 PUSH1 0x40 DUP3 DUP7 SUB SLT ISZERO PUSH2 0x136C JUMPI PUSH1 0x0 DUP1 REVERT JUMPDEST PUSH1 0x40 MLOAD PUSH1 0x40 DUP2 ADD DUP2 DUP2 LT DUP4 DUP3 GT OR ISZERO PUSH2 0x1387 JUMPI PUSH2 0x1387 PUSH2 0x128B JUMP JUMPDEST PUSH1 0x40 MSTORE DUP3 CALLDATALOAD DUP3 DUP2 GT ISZERO PUSH2 0x1399 JUMPI PUSH1 0x0 DUP1 REVERT JUMPDEST PUSH2 0x13A5 DUP8 DUP3 DUP7 ADD PUSH2 0x12A1 JUMP JUMPDEST DUP3 MSTORE POP PUSH1 0x20 DUP4 ADD CALLDATALOAD DUP3 DUP2 GT ISZERO PUSH2 0x13BA JUMPI PUSH1 0x0 DUP1 REVERT JUMPDEST PUSH2 0x13C6 DUP8 DUP3 DUP7 ADD PUSH2 0x12A1 JUMP JUMPDEST PUSH1 0x20 DUP4 ADD MSTORE POP SWAP6 SWAP5 POP POP POP POP POP JUMP JUMPDEST PUSH1 0x0 PUSH1 0x60 DUP3 DUP5 SUB SLT ISZERO PUSH2 0x13E7 JUMPI PUSH1 0x0 DUP1 REVERT JUMPDEST POP SWAP2 SWAP1 POP JUMP JUMPDEST PUSH1 0x1 PUSH1 0x1 PUSH1 0xA0 SHL SUB DUP2 AND DUP2 EQ PUSH2 0xC61 JUMPI PUSH1 0x0 DUP1 REVERT JUMPDEST PUSH1 0x0 PUSH1 0x20 DUP3 DUP5 SUB SLT ISZERO PUSH2 0x1414 JUMPI PUSH1 0x0 DUP1 REVERT JUMPDEST DUP2 CALLDATALOAD PUSH2 0x141F DUP2 PUSH2 0x13ED JUMP JUMPDEST SWAP4 SWAP3 POP POP POP JUMP JUMPDEST PUSH1 0x0 DUP1 PUSH1 0x20 DUP4 DUP6 SUB SLT ISZERO PUSH2 0x1439 JUMPI PUSH1 0x0 DUP1 REVERT JUMPDEST DUP3 CALLDATALOAD PUSH8 0xFFFFFFFFFFFFFFFF DUP1 DUP3 GT ISZERO PUSH2 0x1451 JUMPI PUSH1 0x0 DUP1 REVERT JUMPDEST DUP2 DUP6 ADD SWAP2 POP DUP6 PUSH1 0x1F DUP4 ADD SLT PUSH2 0x1465 JUMPI PUSH1 0x0 DUP1 REVERT JUMPDEST DUP2 CALLDATALOAD DUP2 DUP2 GT ISZERO PUSH2 0x1474 JUMPI PUSH1 0x0 DUP1 REVERT JUMPDEST DUP7 PUSH1 0x20 DUP3 DUP6 ADD ADD GT ISZERO PUSH2 0x1486 JUMPI PUSH1 0x0 DUP1 REVERT JUMPDEST PUSH1 0x20 SWAP3 SWAP1 SWAP3 ADD SWAP7 SWAP2 SWAP6 POP SWAP1 SWAP4 POP POP POP POP JUMP JUMPDEST PUSH1 0x0 PUSH1 0x20 DUP3 DUP5 SUB SLT ISZERO PUSH2 0x14AA JUMPI PUSH1 0x0 DUP1 REVERT JUMPDEST POP CALLDATALOAD SWAP2 SWAP1 POP JUMP JUMPDEST DUP3 ISZERO ISZERO DUP2 MSTORE PUSH1 0x40 PUSH1 0x20 DUP3 ADD MSTORE PUSH1 0x0 PUSH2 0x14CC PUSH1 0x40 DUP4 ADD DUP5 PUSH2 0x1177 JUMP JUMPDEST SWAP5 SWAP4 POP POP POP POP JUMP JUMPDEST PUSH1 0x0 PUSH1 0x20 DUP3 DUP5 SUB SLT ISZERO PUSH2 0x14E6 JUMPI PUSH1 0x0 DUP1 REVERT JUMPDEST DUP2 CALLDATALOAD PUSH8 0xFFFFFFFFFFFFFFFF DUP2 GT ISZERO PUSH2 0x14FD JUMPI PUSH1 0x0 DUP1 REVERT JUMPDEST PUSH2 0x14CC DUP5 DUP3 DUP6 ADD PUSH2 0x12A1 JUMP JUMPDEST PUSH1 0x1 DUP2 DUP2 SHR SWAP1 DUP3 AND DUP1 PUSH2 0x151D JUMPI PUSH1 0x7F DUP3 AND SWAP2 POP JUMPDEST PUSH1 0x20 DUP3 LT DUP2 EQ ISZERO PUSH2 0x13E7 JUMPI PUSH4 0x4E487B71 PUSH1 0xE0 SHL PUSH1 0x0 MSTORE PUSH1 0x22 PUSH1 0x4 MSTORE PUSH1 0x24 PUSH1 0x0 REVERT JUMPDEST PUSH1 0x20 DUP1 DUP3 MSTORE PUSH1 0x38 SWAP1 DUP3 ADD MSTORE PUSH32 0x4572726F6E656F7573207472616E73616374696F6E3A20616D6F756E74207472 PUSH1 0x40 DUP3 ADD MSTORE PUSH32 0x616E73666572726564206973206E6F7420636F72726563740000000000000000 PUSH1 0x60 DUP3 ADD MSTORE PUSH1 0x80 ADD SWAP1 JUMP JUMPDEST DUP1 SLOAD PUSH1 0x1 PUSH1 0x1 PUSH1 0xA0 SHL SUB NOT AND PUSH1 0x1 PUSH1 0x1 PUSH1 0xA0 SHL SUB SWAP3 SWAP1 SWAP3 AND SWAP2 SWAP1 SWAP2 OR SWAP1 SSTORE JUMP JUMPDEST DUP2 CALLDATALOAD PUSH2 0x15C6 DUP2 PUSH2 0x13ED JUMP JUMPDEST PUSH2 0x15D0 DUP2 DUP4 PUSH2 0x159B JUMP JUMPDEST POP PUSH1 0x20 DUP3 ADD CALLDATALOAD PUSH1 0x1 DUP3 ADD SSTORE PUSH1 0x40 DUP3 ADD CALLDATALOAD PUSH2 0x15E9 DUP2 PUSH2 0x13ED JUMP JUMPDEST PUSH2 0x5C8 DUP2 PUSH1 0x2 DUP5 ADD PUSH2 0x159B JUMP JUMPDEST PUSH4 0x4E487B71 PUSH1 0xE0 SHL PUSH1 0x0 MSTORE PUSH1 0x11 PUSH1 0x4 MSTORE PUSH1 0x24 PUSH1 0x0 REVERT JUMPDEST PUSH1 0x0 DUP3 DUP3 LT ISZERO PUSH2 0x161E JUMPI PUSH2 0x161E PUSH2 0x15F6 JUMP JUMPDEST POP SUB SWAP1 JUMP JUMPDEST PUSH4 0x4E487B71 PUSH1 0xE0 SHL PUSH1 0x0 MSTORE PUSH1 0x32 PUSH1 0x4 MSTORE PUSH1 0x24 PUSH1 0x0 REVERT JUMPDEST PUSH1 0x0 PUSH1 0x0 NOT DUP3 EQ ISZERO PUSH2 0x164D JUMPI PUSH2 0x164D PUSH2 0x15F6 JUMP JUMPDEST POP PUSH1 0x1 ADD SWAP1 JUMP INVALID LOG2 PUSH5 0x6970667358 0x22 SLT KECCAK256 0x4A 0xDC PUSH20 0x112A886769DFF4442A005DD42A486B710E4C2772 0xD1 PUSH1 0x6F SSTORE 0xF9 0x2C 0xEE LOG2 PUSH21 0x64736F6C634300080A003300000000000000000000 ",
  "sha1": "8f1bec133798db11b7642d3a2f630d3a86c16e27",
  "source": "pragma solidity ^0.8.0;\nimport \"./KeeperCompatibleInterface.sol\";\n// SPDX-License-Identifier: MIT\n\nstruct Article {\n    address author;\n    string text;\n    address[] voters;\n}\n\nstruct Ad {\n    string imageHash;\n    string ipfsInfo;\n}\n\nstruct SponsorBid {\n    address bidder;\n    uint256 amount;\n    address sponsor;\n}\n\ncontract Journal is KeeperCompatibleInterface {\n    \n    /* State variables */\n    Article[] frontpageArticles;\n    Article[] submittedArticles;\n    address[] editors;\n\n    mapping(address => uint256) userBalances;\n    mapping(address => uint256[]) articlesToVoteOn;\n    mapping(address => bool) hasVoted;\n    mapping(address => bool) isEditor;\n    mapping(address => Article[]) authorToArticles;\n\n    SponsorBid highestSponsorBid;\n    Ad currentAd;\n    address currentSponsor;\n    address owner;\n    uint256 frontpageSize;\n    uint256 lastTimeStamp;\n    uint256 interval;\n    // First entry is owner, second is frontpage author and third the voters\n    uint256[3] private rewardDistributionPercentages = [20, 40, 40];\n\n    /* Modifiers */\n    modifier onlyOwner() {\n        require(msg.sender == owner);\n        _;\n    }\n\n    modifier onlySponsor() {\n        require(msg.sender == currentSponsor);\n        _;\n    }\n\n    modifier onlyEditor() {\n        require(isEditor[msg.sender]);\n        _;\n    }\n\n    constructor(uint256 _frontpageSize, uint256 _interval) {\n        owner = msg.sender;\n        frontpageSize = _frontpageSize;\n        interval = _interval;\n        lastTimeStamp = block.timestamp;\n        isEditor[owner] = true;\n    }\n\n    function initArticle(string memory _text) external {\n        address[] memory voters;\n        Article memory article = Article(msg.sender, _text, voters);\n        authorToArticles[msg.sender].push(article);\n        submittedArticles.push(article);\n    }\n\n    function voteForArticles(uint256 articleIndex) external onlyEditor {\n        require(hasVoted[msg.sender] != true, \"You have already voted.\");\n        require(\n            submittedArticles[articleIndex].author != msg.sender,\n            \"You can't vote on your own article\"\n        );\n        submittedArticles[articleIndex].voters.push(msg.sender);\n        hasVoted[msg.sender] = true;\n    }\n\n\n    // Vurnerable to reentrancy\n    function withdrawRewards(address _withdrawer) external {\n        require(userBalances[_withdrawer] > 0, \"You have nothing to withdraw\");\n        uint256 amount = userBalances[_withdrawer]; \n        userBalances[_withdrawer] = 0;\n        payable(msg.sender).transfer(amount);\n    }\n\n    // amount doesnt have to be in the bid, can just check msg.value\n    function bidOnAdPlacement(SponsorBid calldata _sponsorBid)\n        external\n        payable\n    {\n        require(\n            _sponsorBid.amount > highestSponsorBid.amount,\n            \"Bid is not higher than the highest bid\"\n        );\n        require(\n            msg.value == _sponsorBid.amount,\n            \"Erroneous transaction: amount transferred is not correct\"\n        );\n        // First save the bid to be returned to previous ad buyer\n        // This order is necassary because it is possible the contract would otherwise not have the needed amount to refund\n        SponsorBid memory bidTobeReturned = highestSponsorBid;\n        highestSponsorBid = _sponsorBid;\n        // Return money to previous highest bid\n        require(\n            getTreasuryBalance() < bidTobeReturned.amount,\n            \"Erroneous transaction: Do not have the required amount to refund\"\n        );\n        payable(bidTobeReturned.bidder).transfer(bidTobeReturned.amount);\n    }\n\n    function setCurrentAd(Ad memory _currentAd) external onlySponsor {\n        currentAd = _currentAd;\n    }\n\n    function setFrontpageSize(uint256 _frontpageSize) external onlyOwner {\n        require(_frontpageSize != 0, \"Frontpage can't be empty\");\n        frontpageSize = _frontpageSize;\n    }\n\n    //Called by Chainlink Keepers to check if work needs to be done\n    function checkUpkeep(\n        bytes calldata /*checkData */\n    ) external view override returns (bool upkeepNeeded, bytes memory) {\n        upkeepNeeded = (block.timestamp - lastTimeStamp) > interval;\n    }\n\n    //Called by Chainlink Keepers to handle work\n    function performUpkeep(bytes calldata) external override {\n        require(\n            (block.timestamp - lastTimeStamp) > interval,\n            \"It is not yet time for the treasury to be paid\"\n        );\n        require(getTreasuryBalance() > 0, \"There is no money in the treasury\");\n        publishToFrontpage();\n        lastTimeStamp = block.timestamp;\n        currentSponsor = highestSponsorBid.sponsor;\n    }\n\n    function getArticleVotes(uint256 articleIndex)\n        external\n        view\n        returns (uint256)\n    {\n        require(\n            articleIndex < submittedArticles.length,\n            \"Article index does not exist\"\n        );\n        return submittedArticles[articleIndex].voters.length;\n    }\n\n    function getFrontpageSize() external view returns (uint256) {\n        return frontpageSize;\n    }\n\n    function getSubmittedArticles() external view returns (Article[] memory) {\n        return submittedArticles;\n    }\n\n    function getFrontpageArticles() external view returns (Article[] memory) {\n        return frontpageArticles;\n    }\n\n    function deposit(uint256 amount) public payable {\n        require(\n            msg.value == amount,\n            \"Erroneous transaction: amount transferred is not correct\"\n        );\n    }\n\n    function getTreasuryBalance() public view returns (uint256) {\n        return address(this).balance;\n    }\n\n    function payVoters() private {\n        uint256 voteCount = 0;\n        for (uint256 i = 0; i < submittedArticles.length; i++) {\n            voteCount += submittedArticles[i].voters.length;\n        }\n        uint256 reward = ((rewardDistributionPercentages[2] *\n            getTreasuryBalance()) / 100) / voteCount;\n        for (uint256 i = 0; i < submittedArticles.length; i++) {\n            for (uint256 j = 0; j < submittedArticles[i].voters.length; j++) {\n                userBalances[submittedArticles[i].voters[j]] += reward;\n            }\n        }\n    }\n\n    function payAuthors() private {\n        uint256 reward = ((rewardDistributionPercentages[1] *\n            getTreasuryBalance()) / 100) / frontpageSize;\n        for (uint256 i = 0; i < frontpageSize; i++) {\n            userBalances[\n                frontpageArticles[frontpageArticles.length - i + 1].author\n            ] += reward;\n        }\n    }\n\n    function payOwner() private {\n        uint256 reward = (rewardDistributionPercentages[0] *\n            getTreasuryBalance()) / 100;\n        userBalances[owner] += reward;\n    }\n\n    function publishToFrontpage() private {\n        for (uint256 i = 0; i < frontpageSize; i++) {\n            (\n                Article memory article,\n                uint256 mostVotedOnArticleIndex\n            ) = findMostUpvotedArticle();\n            frontpageArticles.push(article);\n            isEditor[article.author] = true;\n            delete submittedArticles[mostVotedOnArticleIndex].voters;\n        }\n        // Submitted articles get deleted\n        delete submittedArticles;\n    }\n\n    function findMostUpvotedArticle()\n        private\n        view\n        returns (Article storage, uint256)\n    {\n        uint256 mostVotedOnArticleIndex = 0;\n        for (uint256 i = 1; i < submittedArticles.length; i++) {\n            if (\n                submittedArticles[i].voters.length >\n                submittedArticles[mostVotedOnArticleIndex].voters.length\n            ) {\n                mostVotedOnArticleIndex = i;\n            }\n        }\n        return (\n            submittedArticles[mostVotedOnArticleIndex],\n            mostVotedOnArticleIndex\n        );\n    }\n}\n",
  "sourcePath": "contracts/Journal.sol",
  "type": "contract"
}